:020000040800F2
:1000000000060020090800080B0800080B0800087B
:100010000B0800080B0800080B0800080B08000874
:100020000B0800080B0800080B080008C1AC010809
:100030000B0800080B0800080B0800080B08000854
:100040000B0800080B0800080B0800080B08000844
:100050000B0800080B080008CDBB0108F9BB01081C
:1000600025BC010851BC01087DBC0108C17B010809
:10007000E97B0108157C0108417C01086D7C0108C1
:10008000957C0108C17C01080B0800080B080008DA
:100090000B0800080B0800080B080008A9BC0108A1
:1000A0000B0800080B0800080B0800080B080008E4
:1000B0000B0800080B0800080B0800080B080008D4
:1000C0000B0800080B0800080B0800080B080008C4
:1000D0000B0800080B08000895BD0108A9BD010820
:1000E0000DBD01080B0800080B0800080B080008EC
:1000F0000B0800080B0800080B080008ED7C01083D
:100100000B08000881BD0108D1BD01080B080008DB
:100110000B0800080B0800080B0800080B08000873
:10012000197D0108417D01086D7D0108997D010857
:10013000C57D01080B0800080B0800080B08000823
:100140000B0800080B0800080B0800080B08000843
:10015000ED7D0108197E0108457E01080B080008A5
:100160000B0800080B0800080B0800080B08000823
:100170000B080008ADB801080B0800080B080008C0
:100180000B0800080B080008BDBD01080B0800089B
:100190000B0800080B0800080B0800080B080008F3
:1001A0000B0800080B0800080B0800080B080008E3
:1001B0000B0800080B0800080B0800080B080008D3
:1001C0000B0800080B0800080B0800080B080008C3
:1001D0000B08000899B801080B0800080B08000874
:1001E0000B0800080B0800080B0800080B080008A3
:1001F0000B0800080B0800080B0800080B08000893
:100200000B0800080B0800080B0800080B08000882
:100210000B0800080B0800080B0800080B08000872
:100220000B0800080B0800080B0800080B08000862
:100230000B0800080B0800080B0800080B08000852
:100240000B0800080B0800080B0800080B08000842
:100250000B0800080B0800080B0800080B08000832
:100260000B0800080B0800080B0800080B08000822
:100270000B0800080B0800080B0800080B08000812
:100280000B0800080B0800080B0800080B08000802
:100290000B0800080B0800080B0800080B080008F2
:1002A0000B0800080B0800080B0800080B080008E2
:1002B0000B0800080B0800080B0800080B080008D2
:1002C0000B0800080B0800080B0800080B080008C2
:1002D0000B0800080B0800080B0800080B080008B2
:1002E000000000000000000000000000000000000E
:1002F00000000000000000000000000000000000FE
:100300004ECF4EA5A6B6F72930820122300D060940
:100310002A864886F70D01010105000382010F00BE
:100320003082010A0282010100B17803934E304A03
:100330005885088946E53FC3736DFEB0C90E20207D
:1003400055A5A2E6FAA1DB02A42CF97751AAFE0278
:1003500039805F96866EFEC63BAA136DE9C57EE5C1
:10036000986DC7A2C01582AA499921CA36FC054BCF
:10037000CDB54AB9764C4F5A9CDD7E7EAB9BA042F0
:10038000D5220B6CFB80F60DCFCD261C0C3170D224
:10039000396F0CAAADE1C15462976BEC310DC80105
:1003A0006AE0C467D778FFDAF301F2F76671ADE26D
:1003B00056556FD84109B5E34F021456EB9DEDE455
:1003C000C5A87888DD7F1287A815D46B30551F9893
:1003D000C45E1685ED8E18ED8D1CD28F27711E39E7
:1003E0004F4AD1EDD39293B191F4FD6AACBBD96F72
:1003F0009309706DB8BFF1B97A228839C1BBA47274
:10040000C91EBFA9120FDF5451871D49F7A22C71D5
:10041000F040BF17E9E502381C18F40E8FAC08BC99
:10042000B50737B421BECFBE91020301000130826F
:100430000122300D06092A864886F70D01010105C3
:10044000000382010F003082010A0282010100DDF7
:100450001B345491945C4124FB64F09C2F14471F7F
:1004600005D409B5DB7A1842F05C5EC2DD558F8990
:100470008D9615E9A177EE608124E51810139A6432
:10048000953B87612DEEE91D8EB14A0723A0D06A06
:1004900033BF2838CE7D7E7D46A3D2AF36B83AD45E
:1004A000B727D1F9192DEEFCCA9C0DA4BEDC52DB96
:1004B0005257B675E1D76BF4DD89FBC3B9CE520A4A
:1004C0001AC3422265AEF6B9DBAA08AEF208ADDA6D
:1004D00017C8B85260ED959257A33051156577CE85
:1004E00084E644A61864767438FC8B36B43AD1EAB4
:1004F0005A5F60EAAFDA1CBF90AC4F116D370D57F1
:10050000C8F6BDBDE11E3167686D30B3B5A2A988DC
:10051000E784D7B8273E9742D5A5D3F0C83BAFA50F
:1005200009C6F5EB6680D681072DC8F2FF1ED3E51C
:10053000EEE8A2861CA48B99E772123DEE676B3938
:100540001DDF6276CCED8A4202C5E5614553C302E8
:100550000301000130820122300D06092A864886F7
:10056000F70D01010105000382010F003082010A2D
:1005700002820101009A75EEE2BD9465E05DCBFA5E
:1005800095AE2A8A8D26205C3F23A81D4E28721D19
:10059000C6923A6E0E312C550EEE63DB8BDFCC66C5
:1005A00025ED278C6EAFF0C7850E06D3B992D974AE
:1005B000208EE3A576C432A736A08D0F8BC1CC0C5C
:1005C00068BFA7D1DEC30967C08A7E652707D6A0AA
:1005D000B48AD2EF4E37518DAFECA0160007C3CFCF
:1005E0006D16F02D1AD4607D85B766BF72623AAB86
:1005F00065F2761F523A4001AD6EA9431DEEAB94F1
:1006000043FA56B2CE33509951847CB3737F1B6C3E
:10061000E3807684762F466A6BE46DB94881BD4AE3
:10062000674E096685938E9A2DD09AD8D2A1BB9237
:100630007F9C1D9A93EBF01D0F8D3E8793E8ABFADC
:100640001EE6E5AACA7831056648D0DC447BF90588
:1006500087E40F63F7AFE9D88CC6161DE0E746D7ED
:100660002FA5E8D055F9472FA8F17950E57B902DBB
:100670002068171EED020301000130820122300DB7
:1006800006092A864886F70D01010105000382014B
:100690000F003082010A02820101008E9F66ADF8D0
:1006A0009956C02A5560013416E7D7FB6FB3502D19
:1006B000C42347963477C3D4F93BE946EF06C171AA
:1006C0003DD0FDA179F575C7C89447BA9A68A84985
:1006D000255D3B7AB36FE3F5F8A9BD3EAB7B268879
:1006E000764A902A8635E99D3D639E8EBCBE476C56
:1006F000FB039CF9569AFB518912EEFCADAADA1F56
:1007000058E998F8F3DE87C71A672359E2F6607D47
:10071000A036C03883F134ED1123CB827B7F0349AF
:10072000E31E41DA5F719466D6B117467A5E3A3FAE
:10073000DD338945BBE13BD73C7BD13581575469DB
:1007400039C371D8A3E1B64F68486FD8BA8885FA23
:10075000A7D96595F7FA26A0F5E5A91DFB0BDAF4F4
:100760003484CE08E9261BED0BA33376354DBDD17D
:10077000CFF7AB455F7DA1149994B6CB466A4A4743
:100780004546BA2F85268D3276DEB5B39D1256DAF0
:1007900054B551D92AFC656A89EF3502030100017D
:1007A0000000000000000000000000000000000049
:1007B0000000000000000000000000000000000039
:1007C0000000000000000000000000000000000029
:1007D0000000000000000000000000000000000019
:1007E0000000000000000000000000000000000009
:1007F00000000000000000000000000000000000F9
:1008000000000000000000000000000000000000E8
:1008100000000000000000000000000000000000D8
:1008200000000000000000000000000000000000C8
:1008300000000000000000000000000000000000B8
:1008400000000000000000000000000000000000A8
:100850000000000000000000000000000000000098
:100860000000000000000000000000000000000088
:100870000000000000000000000000000000000078
:100880000000000000000000000000000000000068
:100890000000000000000000000000000000000058
:1008A00002E000F000F8FEE772B6374880F30888EF
:1008B000364880F3098836483649086040F200001F
:1008C000CCF200004EF63471CEF200010860BFF3A6
:1008D0004F8FBFF36F8F40F20000C0F2F0004EF672
:1008E0008851CEF200010860BFF34F8FBFF36F8FC6
:1008F0004FF00000E1EE100A4EF63C71CEF200011E
:100900000860062080F31488BFF36F8F1AF086FA10
:1009100019F0F8FB4FF055301F491B4A91423CBF7C
:1009200041F8040BFAE71D49184A91423CBF41F8CF
:10093000040BFAE71A491B4A1B4B9A423EBF51F877
:10094000040B42F8040BF8E700201849184A9142BA
:100950003CBF41F8040BFAE71AF09EFA19F056FC76
:10096000144C154DAC4203DA54F8041B8847F9E7E0
:1009700012F0E0FE114C124DAC4203DA54F8041BA5
:100980008847F9E71AF086BA000600200022002006
:100990000000000808ED00E0000000200006002034
:1009A000E8E0010800220020E4220020E8220020E4
:1009B000AC670020E0020008E0020008E002000846
:1009C000E00200082DE9F04F2DED108AC1F80CD09F
:1009D000D0F80CD0BDEC108ABDE8F08F002383F373
:1009E00011882846A047002019F068F9FEE719F0A1
:1009F000C1F800DFFEE700002DE9F04FD1B0031F82
:100A000000F11C0407AA0793069453F8040F9C42B4
:100A100042F8040FF9D10DF140080A1F20A84346FF
:100A200052F8041F43F8041B9842F9D108F1C0049E
:100A30004246966B114652F8045F4FEAF643486A05
:100A40000F684FEAB54183EA76439442384481EA1D
:100A5000F51183EA962381EAD50103440B44D3635D
:100A6000E7D1B64FDFF8E8C2DFF8E8E2DDF83C9006
:100A7000DFF8E4B20C9DCDE9047CB14FDFF8DCC2B5
:100A8000CDE9027EAF4FDFF8D8E20197AE4FDDE946
:100A90000D64DDE90832DDE90A01009713E05BF837
:100AA000207C00975BF8147C01975BF8107C029720
:100AB0005BF80C7C03975BF8087C5BE907EC049718
:100AC0005BF8047C059784EA060A0BF1200B08F119
:100AD00020080AEA050A8AEA04074FEAF52A8AEAA0
:100AE000B51A8AEA756ABA4458F8207C574403EA72
:100AF000020AB944009F4F4485EA06093944009729
:100B000058F81C7C09EA01093C4458F8187C89EA29
:100B100006093E44A1444FEAF12484EAB11484EA70
:100B200071644C444FEAB309A64443EA020489EADB
:100B300073390440704489EAB35944EA0A04A14471
:100B4000009CA14485EA010404406C4034444FEA0F
:100B5000F02686EAB01686EA7066344449EA03064F
:100B6000A4444FEA7934164002EB0C0784EAB90436
:100B700009EA030284EAB954324358F8146C144465
:100B80003544019E744481EA000E0EEA070E49EADC
:100B9000040A4FEA74328EEA010E0AEA030A82EA74
:100BA000B40275444FEAF72E82EAB4528EEAB71EB9
:100BB0008EEA776E75442E4409EA04054AEA050573
:100BC000334480EA070AB6462A4458F8106C0AEA09
:100BD000030A624431448AEA000A44EA020C4FEAFA
:100BE00072358A4404EA02010CEA090C85EAB2056E
:100BF0004CEA010185EAB2550D444FEAF32181EA3E
:100C0000B311754481EA736102EA050C4FEA753647
:100C10008A44029986EAB5068A4442EA050186EAD0
:100C2000B5562140D14441EA0C0187EA030C314416
:100C30000CEA090C58F80C6C8CEA070C514430444F
:100C4000039E05EA010E84444FEAF92080EAB910B8
:100C500080EA7960604445EA010C30444FEA71361D
:100C60000CEA020C86EAB10604444CEA0E0C86EA51
:100C7000B156664483EA090C304458F8086C0CEA13
:100C8000040C37444FEAF4268CEA030C01EA000E08
:100C900086EAB416674441EA000C86EA74660CEAF8
:100CA000050C3744049E4CEA0E0C3744D6194FEA23
:100CB000703282EAB00282EAB052624489EA040CDD
:100CC0003A4458F8047C0CEA060C3B444FEAF627F9
:100CD0008CEA090C00EA020E87EAB617634487EA39
:100CE00076673B44059F1F444FEA723383EAB203A1
:100CF0003D4483EAB25C40EA02030B4043EA0E0340
:100D000063443B44114F5F457FF4C9AE0B9109A981
:100D1000CDF83C900C95CDE90D64CDE90920DDE9D5
:100D2000064201E051F8043B52F8040F0344944298
:100D30001360F7D1002051B0BDE8F08FA4823F923C
:100D40005BC25639A5DBB5E9982F8A421CCB010856
:100D5000D55E1CABF111F1591CCA0108CFFBC0B51F
:100D60009144377108B3202238B50D46002104465E
:100D700014F02AF90E4A00200E4B0F49A066E566D2
:100D8000C4E900230D4A0E4BC4E902230D4B0E4A61
:100D9000236103F12D6303F51E3303F29A23C4E9A3
:100DA0001800C4E90512E36138BD6FF0AC0070476C
:100DB00067E6096A85AE67BB8C68059B72F36E3C7B
:100DC0003AF54FA57F520E51ABD9831F00287BD037
:100DD00041EA02032DE9F0470D468146164609B95E
:100DE000002A6ED113B90020BDE8F087D9F8600061
:100DF0003F286CD8D9F86430F318C9F8643031D280
:100E000009F12007B8BB26F03F082E4409F15C0425
:100E1000A844A6EB050A454517D040222946384686
:100E2000154414F0ABF809F11C0353F8042F12BA5F
:100E3000A3421A60F9D139464846FFF7DDFD002884
:100E4000D2D14545A6EB050AE7D1BAF1000FCAD0C9
:100E500052462946384614F091F80020C9F860A09F
:100E6000BDE8F087D9F8683009F120070133C9F8E7
:100E700068300028C7D0C0F1400429463844B44245
:100E800028BF34462246361B14F078F8D9F8603073
:100E900025441C44402CC9F86040B4D109F11C031E
:100EA00009F15C0153F8042F12BA99421A60F9D182
:100EB00039464846FFF7A0FD002895D1C9F86000E3
:100EC000A1E76FF0AC008FE76FF0AC0070476FF0F8
:100ED000830089E700B5864689B0B0B10846A1B164
:100EE000AEF10402ADF1040C0EF11C0E52F8043FF9
:100EF0001BBA72454CF8043FF8D12022694614F021
:100F00003DF8002009B05DF804FB6FF0AC00F9E794
:100F10002DE9F843002800F08B800E46B1FA81F1EC
:100F20004909002E00F08480036E044600F1200879
:100F30008022581C206608F80320236E382B59D8CD
:100F400008EB0300C3F1380204F11C0704F15C054F
:100F5000002114F039F83B46D4E91921500FD20092
:100F600000EBC1016266A16653F8042F12BA9D42DC
:100F70001A60F9D1042204F1680104F1580013F059
:100F8000FDFF042204F16401284613F0F7FF4146F7
:100F90002046FFF731FD814648BB231F53F8042F3D
:100FA00012BABB421A60F9D120222146304613F012
:100FB000E5FF20220021204614F006F800231E49F8
:100FC0001E4AA366C4E90012C4E918331C4A1D4B2B
:100FD0001D49C4E9032303F12D631C4AA16003F5F5
:100FE0001E331B4903F29A23C4E90512E361484604
:100FF000BDE8F883C3F1400208EB030013F0E4FFFF
:1010000004F11C07402304F15C0523663B4653F8BA
:10101000042F12BA9D421A60F9D141462046FFF7CB
:10102000EBFC81460028E2D12066382240468FE75B
:101030006FF0AC09DBE700BF67E6096A85AE67BB06
:101040003AF54FA57F520E5172F36E3CABD9831F18
:101050008C68059BE0B12022002110B5044613F0F6
:10106000B3FF0D4800230D4A0D492366A1600D49C9
:101070006366C4E900020C4A0C48E2600C4AC4E909
:1010800004020C4A1846C4E90612C4E91A3310BD1A
:101090006FF0AC00704700BF67E6096A85AE67BBBA
:1010A00072F36E3CABD9831F3AF54FA57F520E51B8
:1010B0008C68059B19CDE05B704700BFA8B130B5C7
:1010C0000C469FB071B10DF10F050146702225F05D
:1010D0000F05284613F052FF21462846FFF718FF58
:1010E0001FB030BD6FF0AC00FAE76FF0AC00704796
:1010F00078B10B4610B5B1FA81F4640931B10146FB
:101100007022184613F03AFF204610BD6FF0AC0075
:1011100010BD6FF0AC0070472DE9F0418D1E4FF609
:10112000FD74A54260D8B2FA82F56D09002A5BD041
:10113000012B3CD0022954D0471E441C2E460F449C
:10114000A64614F801CF0CF1FF3C0EF1020EA742A7
:101150004FEAEC7CAEEB000E1FFA8CFC2CEA050883
:1011600045EA0C0508EA0E0E46EA0E06E8D1C6F17D
:101170000A04891B0644E40F013C64EA0505EDB24C
:10118000447800781660621E0138E443D21AC00F1A
:101190002344D20F0138DB0F013A2843013B1043AF
:1011A0001843C0F3C01001380840BDE8F08103784F
:1011B000EBB94378012B1AD1022303E0045DABB2F3
:1011C000FF2C04D18B4203F101051C46F6D30A2BF8
:1011D0000DD9C41814F8010C48B9C81A1460BDE838
:1011E000F0810646FF25CBE76FF0AC00DDE76FF03E
:1011F000C800DAE7C0B110B500F58054D4F8440156
:1012000088B194F858314BB1D4F84831023B012BE6
:101210000BD919F089FB002384F858310023C4F856
:101220004431C4F8503110BD7047D4F85021002A21
:10123000EFD0024400210346013082421970FAD1F6
:10124000D4F844010028E6D0E3E700BF2DE9F843D5
:101250000E469DF82010D8B3D6B31546C2B3B3FAE4
:1012600083F25209A3B30746A3F10B00B04232D375
:10127000A946012903F1FF3809F8012B697020D034
:10128000023BA91C09989C1B224610F01DFFB0B917
:10129000012C08D92B194A46012012F8011F01B967
:1012A00010709A42F9D1A8EB06080024324639465C
:1012B00009EB080005F8084013F060FE2046BDE881
:1012C000F883033BFF21A81C9A1B13F07DFEEAE77D
:1012D0006FF0AC00F3E76FF0C800F0E72DE9F04FD6
:1012E0002DED028BADF6F42DDDF8244BDDF8205BFF
:1012F000002C00F09B818046002800F09781002A96
:1013000018BF00290F46914600F090811E46002B21
:1013100000F08C811B68002B00F088816A1C00F0B3
:101320008581032D06D104F58053D3F84C31042B6D
:1013300000F0228120460FF0A5FC8742824600F291
:10134000C3812368002B03DDA368DB0740F1BF8165
:1013500020460FF057FDB0F5006F04D1012D53DC8E
:10136000002D80F2928020460FF04CFDB0F5406FCA
:1013700005D1012D00F3B180002D80F29A80A5F1F6
:10138000020B0AA80FF058FB40BBBBF1010F40F263
:101390002B813A4641460AA80FF096FC002840F0FF
:1013A0007C82012D00F3F880002D80F2D6800AA8FF
:1013B0006FF081050FF07CFBBBF1010F16D904F52E
:1013C000805300222046C3F84C21FFF713FF284624
:1013D0000DF6F42DBDEC028BBDE8F08F6FF06D05BE
:1013E0000AA80FF065FBBBF1010FE8D80DF58F637C
:1013F00008EE103A94AB089318EE100A0FF058FB61
:1014000008980FF055FBDAE7A5F1020BBBF1010FCD
:1014100000F2D480DDF8283B002B00F0048104F5B5
:10142000CF6B58460FF0EEFCB0F5806F9BD104F502
:101430000A63184608930FF0E5FCB0F5806F089B2F
:1014400091D104F61875009304F58A625B46039502
:1014500004F54F6539464046029504F6C8250494C4
:101460000195CDE9059607F065F910F16C06054682
:1014700018BF012606EAD076002EA0D128460DF628
:10148000F42DBDEC028BBDE8F08F01963946404645
:10149000234604F50A72CDF8009007F063F810F1C6
:1014A0006C06054618BF012606EAD076002EE5D068
:1014B00085E7019639464046234604F50A72CDF881
:1014C000009007F05BFB10F16C06054618BF012683
:1014D00006EAD076002ED1D071E7A5F1020BBBF160
:1014E000010F3FF64EAFDDF8283B002B00F09B804C
:1014F00004F5CF63184608930FF084FCB0F5C06F75
:10150000089B7FF43EAF04F50A62099310460892E7
:101510000FF078FCB0F5C06FDDE908237FF431AF40
:1015200004F618750092394604F58A62039504F5AD
:101530004F6540460494029504F6C825CDE905960A
:10154000019507F005FC10F16C06054618BF012651
:1015500006EAD076002E91D031E70AAB224604F598
:101560000A7118460FF02CFB002859D133689A45B0
:1015700018D96FF0820533E70DF6C803184608EE58
:10158000903A0FF059FA002853D018EE900A6FF0F5
:101590006D050FF09DFA1AE70AA86FF081050FF0AC
:1015A00087FA0CE7524649460AA8C6F800A00FF091
:1015B00089FB054648B16FF0700511E720460FF032
:1015C00021FCB0F5406F8AD0DBE60AA80FF070FA74
:1015D000BBF1010F3FF6FBAE0DF58F600FF068FA1F
:1015E00094A80FF065FAF2E694AB0DF58F61024610
:1015F0000893034608EE101ACDE9000008980FF092
:1016000075FA002848D13A4641460AA80FF05CFB1B
:1016100000285FD00AA86FF06E050FF049FAEBE6DC
:101620006FF06F05DCE66FF0EB05C8E66FF0AC0518
:10163000CDE63A46414618EE900A0FF045FB30B130
:1016400018EE900A6FF06E050FF042FABFE6DDF873
:101650002C3B8BBB18EE902A012118EE900A0FF05C
:10166000EDFF30B118EE900A6FF072050FF030FA0E
:10167000ADE6214618EE900A0FF0A4FA013006D02C
:1016800018EE900A6FF0FC050FF022FA9FE618EEB4
:10169000900A0FF01DFA4DE60AA86FF06D050FF0E5
:1016A00017FA0AA80FF004FA18EE100A0FF000FA61
:1016B00008980FF0FDF982E6012118EE900A0FF06C
:1016C000C7FA0128DCD1C5E76FF0AC0577E64FF02B
:1016D000FF3574E6012D7FF767AE204607F056FE12
:1016E000DDF8282B0146089807F064FE054698B1FE
:1016F0000AA80FF0DDF915F16C0618EE100A18BFF4
:1017000001260FF0D5F9089806EAD5760FF0D0F942
:10171000002E3FF4B3AE52E618EE102A2146089888
:101720000FF046FA28B16FF076050AA80FF0C0F95D
:1017300062E6089B224604F50A7118460FF03CFA4F
:1017400010B16FF06F05F0E70AAB22460899184612
:101750000FF01CFA10B16FF07405E6E70DF5D460D8
:101760000FF06AF910B16FF06D05C1E70DF6C8030F
:10177000184608EE903A0FF05FF920B10DF5D460ED
:101780000FF096F9EFE704F5CF650DF5D46304F695
:10179000C8210AA82A460FF00FFA50B10DF5D460FF
:1017A0006FF06F050FF084F918EE900A0FF080F9D2
:1017B0009EE704F50A6718EE903A04F54F610AA80F
:1017C0003A460FF0F9F90028E8D10DF5D4630AAADA
:1017D00018EE901A18460FF0D3F958B10DF5D463EE
:1017E0006FF0710518460FF063F918EE900A0FF0CC
:1017F0005FF97DE70AAB2A4604F6187118460FF028
:10180000C5F950B10DF5D4606FF074050FF050F9C3
:1018100018EE900A0FF04CF96AE70AAA394610460A
:101820000FF0B0F950B10DF5D4606FF073050FF003
:101830003FF918EE900A0FF03BF959E70AAA18EEA3
:10184000901A10460FF09AF958B10DF5D4636FF065
:10185000720518460FF02CF918EE900A0FF028F9CF
:1018600046E70DF5D4600FF023F918EE900A0FF05B
:101870001FF90AAB224618EE101A18460FF086F927
:1018800000287FF468AF33689A457FF68BAE0AA8CC
:101890006FF082050FF00CF9AEE50AA86FF06E0547
:1018A0000FF006F98BE500BF2DE9F047984686B0AA
:1018B00000230F9E9DF844A00593002800F0C980E6
:1018C0000C46002900F0C5801746002A00F0C180B0
:1018D000002E00F0BE8006F58055D5F84C31062B61
:1018E00005D8DFE803F047040404102D58006FF01A
:1018F000BF0400233046C5F84C31FFF77BFC20467F
:1019000006B0BDE8F087D5F84421139B2146104668
:10191000CDE90163109B0093129B013B18BF01238B
:10192000039341F250133344FFF7D8FC041E02DA4C
:1019300014F16C0FDDD10523002CC5F84C314DDBC3
:101940003046D5F84441D5F850910FF05BFA129B20
:10195000002B40F0818053462046494605AAFFF7F8
:10196000DBFB109B0446012B18D1404516DD6FF0C0
:101970008204BEE7D5F84431C5F85011002BB6D12A
:101980000E9A7AB33A4685F85831C5F84471042363
:10199000C5F84C31B9E76FF08104AAE7002C1ADBD7
:1019A0000599C1B10E9B7BB30E9B1960A8EB04088F
:1019B0006FF082034FEAD8785C4008F1FF3808EAFC
:1019C000040484EA0302E10F013A0139D20F013A1B
:1019D0000A4314405C400623C5F84C3114F16C0FE7
:1019E00087D18CE78146084618F05EFF0122C5F8D2
:1019F000440185F8582100283CD02246494613F07E
:101A0000BDFAD5F84421C2E7109B032B2DD1D5F8A0
:101A10005031D5F84421002BC8D00E9B501A08F144
:101A2000FF3C194601E0D5F84421525CACEB030EB3
:101A3000FA540A184FEADE7E0131D20F0EF1FF3E52
:101A4000013A02EA0E029B1AD5F850219142EAD3DC
:101A5000ACE76FF0AC0452E7109B012B02D118F1F8
:101A6000C90F84DB6FF0C80443E73846224613F001
:101A700085FA9BE76FF07C043BE700BF2DE9F04F50
:101A800085B00E9C9DF840B0002863D00D4600291B
:101A900060D01746002A5DD0002C5BD09946824664
:101AA00020460FF0EFF84845064656DCA0F10B0340
:101AB000F52B55D89D4250D804F58058D8F84C31B4
:101AC000022B17D03EDC012B41D801232046C8F859
:101AD0004C310FF097F9119B2946504601933A4635
:101AE0003346CDF800B0FFF7B1FB051E1DDB022326
:101AF000C8F84C31119A0123C8F85091314603932C
:101B000041F2501338462344CDE901420F9A009226
:101B10003A46FFF7E3FB051E02DA15F16C0F07D119
:101B20000323002DC8F84C310EDA15F16C0F05D0E7
:101B300000232046C8F84C31FFF75CFB284605B06F
:101B4000BDE8F08F032B02D1D8F85051EDE76FF0CC
:101B5000BF05EDE76FF0AC05F0E76FF08205EDE74C
:101B60006FF0E905EAE700BF70B582B000283FD00A
:101B700004460D4641F25C12002113F025FA04F5EB
:101B80000A76002304F580504FF0FF31C0F8405131
:101B90001A46C0F84C3180F85831C0F84431C0E9D9
:101BA0005433CDE90033C0F84811314620460EF0D9
:101BB0009DFF054610B1284602B070BD04F61871AD
:101BC00004F54F6204F6C82304F58A60CDE90021CC
:101BD00004F50A6204F5CF610EF088FF054600287F
:101BE000E9D020460EF074FF30460EF071FFE2E7B8
:101BF0006FF0AC05DFE700BF6FF00102FFF7B4BF85
:101C0000002841D010B50446FFF7F4FA04F58053DC
:101C100004F61870D3F84831012B1ED00EF058FF8F
:101C200004F54F600EF054FF04F6C8200EF050FF8C
:101C300004F50A600EF04CFF04F5CF600EF048FF8B
:101C400004F58A600EF044FF04F50A700EF040FFC0
:101C500020460EF03DFF002010BD0EF029FF04F5D8
:101C60004F600EF025FF04F6C8200EF021FF04F5AA
:101C70000A600EF01DFF04F5CF600EF019FF04F5A9
:101C80008A600EF015FFDFE76FF0AC00704700BF11
:101C900070B4DDE904569DF80C401EB9039470BC85
:101CA000FFF7D4BA6FF0C80070BC704710B4019C45
:101CB0001CB95DF8044BFFF72FBA6FF0C8005DF850
:101CC000044B7047042805D0A0F10600B0FA80F05C
:101CD000400970471A20704710B584B0069C0094E4
:101CE000079C0194089C029401240394FFF7F6FAE0
:101CF00004B010BD10B584B04FF0020C069C0094E7
:101D0000079C03940024CDE9014CFFF7B7FE04B013
:101D100010BD00BF10B51C4686B04FF0000C0B463E
:101D2000019404F5805400920246D4F8544105947D
:101D30000224CDE9034C03240294FFF7B5FD06B05D
:101D400010BD00BF10B586B04FF0020C089C019486
:101D500004F58054D4F8544105940024049400946C
:101D60000324CDE9024CFFF79FFD06B010BD00BF74
:101D700010B51C4686B04FF0000C0B46019404F5DC
:101D8000805400920246D4F8544105940124CDE9D0
:101D9000034C0294FFF788FD06B010BD10B586B065
:101DA000089C7CB1019404F58054D4F85441059406
:101DB0000024049400940124CDE90244FFF774FD4B
:101DC00006B010BD6FF0AC00FAE700BF30B587B0C9
:101DD0000A9C84B1019404F580540B9D0495D4F8B9
:101DE000544105940124CDE9024400240094FFF7F6
:101DF0005BFD07B030BD6FF0AC00FAE730B587B0DF
:101E00000A9C84B1019404F580540B9D0495D4F888
:101E1000544105940124CDE9024400240094FFF7C5
:101E200043FD07B030BD6FF0AC00FAE710B584B0E9
:101E30004FF0010C069C0094079C03940224CDE90A
:101E4000014CFFF71BFE04B010BD00BF08B10EF03F
:101E500019BF6FF0AC0070472DE9F047DDF8208026
:101E600090B30E4681B3002B18BF002A15461F46BB
:101E70002AD0B8F1000F27D000F50A7A0446504660
:101E80000EF000FF2B68814683421AD3314650463C
:101E90000EF016FF08B1BDE8F087C5F800902046A7
:101EA0000EF0F0FED8F800300546834209D33946DB
:101EB00020460EF005FF0028EDD1C8F80050BDE81F
:101EC000F0876FF08200E6E76FF0AC00E3E700BF59
:101ED00000287CD0F0B583B00091002973D0019226
:101EE000002A70D01D46002B6DD0089B002B6AD0B5
:101EF000099B002B67D00A9B002B64D00B9B002B07
:101F000061D0DDE90C32002B18BF002A5BD00E9B9C
:101F1000002B58D000F50A77044638460EF0B2FE82
:101F2000019A064600991368984253D838460092A1
:101F30000EF0C6FE002848D1009A204616600EF02A
:101F4000A1FE089B06461B68984243D829462046B6
:101F50000EF0B6FE002838D1089B04F58A671E6093
:101F600038460EF08FFE0A9B05461B68984231D812
:101F7000099938460EF0A4FE38BB0A9B04F5CF66DB
:101F80001D6030460EF07EFE0C9B05461B68984295
:101F900020D80B9930460EF093FEB0B90C9B04F597
:101FA0000A641D6020460EF06DFE0E9B05461B6800
:101FB00098420FD80D9920460EF082FE28B90E9B4C
:101FC0001D6003B0F0BD6FF0AC0003B0F0BD6FF06A
:101FD000AC0070476FF08200F7E700BF48B1B1FA7C
:101FE00081F2520929B100F580531046C3F854110B
:101FF00070476FF0AC0070472DE9F04F0025056089
:102000001368AB425EDD9368934602F10C044FF017
:10201000010C23F060434FF01D0E2E4603609368C1
:102020005B0F436004E0236823FA0EF3C3510434CA
:102030000135DBF80030CEF12009AB422EDD6145E1
:102040002CDD23680CF1010850F82C204FEA8C0796
:1020500003FA09F38845AEF1030943EA020323F0CA
:10206000604340F82C3029DA0EF11A0E236807F18C
:10207000040ABEF1200F23FA09F326D80CF1020C52
:1020800023F06043614540F80A3019DDBEF1200FAE
:1020900007F10807C7D140F82C60C8E70CF1010C24
:1020A00061450BDD6FF040420023624400EB82008B
:1020B0000CF1010C40F8043F6145F9DCBDE8F08FFC
:1020C000C446B4E74FF0010CECE7C446CE4640F8F6
:1020D0000A30ACE7034600F58E7CF0B5D3E9005238
:1020E00002EB657243F8042F634553F8042C22F089
:1020F000604243F8042CF1D10025FE24082381F826
:10210000FF502E46026881F8FF2004F1010C8C4438
:1021100006E002681A4108330CF8012DE4B1744658
:102120001C2B04F1FF3EF4DDD3F1250C0E5514BF3A
:10213000671C27460135472D0DDC50F8042F7C1E07
:1021400011F807E0CCF1080302FA0CF242EA0E02A1
:10215000CA55002FD9D1F0BDC3F1250C2746E9E7B8
:10216000F0B5034600F1800E1C69D3E90076D3E98F
:10217000022506EB677627F0604702EB667226F0D1
:10218000604605EB627522F06041C3E9007604EB1E
:10219000657425F060475D69C3E9021705EB647C4F
:1021A000996924F0604501EB6C712CF060441D616D
:1021B000D3E90726203302EB617221F060417345B9
:1021C00043F80C4C06EB627622F0604243F8081CA0
:1021D00043E90126C8D1D0F88820D0E9201303EBC9
:1021E000617321F0604102EB637223F06043C0E948
:1021F0002013D0F88C3022F0604103EB6273C0E909
:102200002213F0BD2DE9F041034600F5807E9F6862
:10221000DE689969D3E9004202EB647824F06044F7
:1022200007EB68771C601C6928F0604806EB67764E
:1022300027F0604C04EB667426F060475E69DF604F
:10224000C3E9018C06EB647C24F06046D3E90725E2
:1022500001EB6C7120332CF0604443F8106C02EBFE
:102260006172734521F0604143F80C4C05EB6275D7
:1022700022F0604243F8081C43E90125C7D1D0F899
:102280000821D0E9401303EB617321F0604102EBB8
:10229000637423F06043C0E94013D0E94321D0F8D0
:1022A000143124F0604502EB6472C0F8085101EB70
:1022B000627122F0604203EB6174D0F8183121F0B2
:1022C0006041C0F80C2103EB6473D0F81C21C0F806
:1022D000101124F0604102EB637223F06043C0F8F8
:1022E0001411C0E94632BDE8F08100BF2DE9F04F7E
:1022F000146893B0556800944C6896688F6802948F
:102300000195D468CD680396049716690F69059402
:102310000E9554694D690B680696079796698F6903
:1023200008940995D469CD690A960B970D940C957C
:10233000D2F820E0D1F82080576AD1F824C0D2E941
:102340000A45D1E90A621946009B109281FB032BD2
:102350000F914FEA527922F0604202601A46029BC6
:1023600049EACB0982FB03A2019BC1FB03A219EB43
:102370000A034FEA537923F0604342EB5B7A039AF6
:102380004360019B49EACA099B46029B8BFB033BC6
:10239000C1FB023B009A1146049AC1FB023B19EBB8
:1023A00003030F9A4BEB5A714FEA537B23F06043C0
:1023B00011914BEAC10B83600299039B81FB033AA5
:1023C0001146059AC1FB023A009A91460E9AC9FB42
:1023D000023A019A9146049AC9FB023A119A1BEB00
:1023E00003034AEB527B4FEA537A23F06043C36006
:1023F0004AEACB0A059B9946029B83FB09120F9B75
:102400009946069BC9FB0312019B119199460E9BAD
:102410001946119BC9FB01321946039B9946049B3F
:10242000C9FB0312009B9946079BC9FB03121AEBD9
:1024300001030E9942EB5B7A5A0F23F0604342EAA4
:10244000CA090361069B0F9ACDF844909946029BF6
:1024500083FB093B9146089AC9FB023B039AC2FBE6
:10246000013B049A9146059AC9FB023B009A9146AA
:10247000099AC9FB023B019A9146079AC9FB023BA4
:10248000119AD3180F9A4BEB5A794FEA537B23F0EA
:102490006043CDF8389043614BEAC90B089B9946DD
:1024A000029B83FB093A91460A9A1191C9FB023AB1
:1024B000059AC2FB013A049A9146069AC9FB023A70
:1024C000019A9146099AC9FB023A039A9146079AE2
:1024D000C9FB023A009A91460B9AC9FB023A0E9A3E
:1024E0001BEB03034AEB527B4FEA537A23F0604322
:1024F00083614AEACB0A0A9B9946029B83FB091235
:102500000F9B99460D9BC9FB03120B4611998946F7
:102510000E910699C9FB01321946049B9946089B06
:10252000C9FB0312039B119199460999119BC9FBA1
:102530000132059989460799C9FB01321193009B25
:102540000C999946119BC9FB01321946019B99468A
:102550000B9BC9FB03121AEB010342EB5B7A0F9A48
:10256000590F23F0604341EACA01C3610D9B1191E9
:10257000029981FB033B0E9989460899C2FB0E3BE9
:10258000049AC9FB013B0A99C2FB013B0599099AD0
:10259000C1FB023B0699019A89460799C9FB013B99
:1025A00091460C9A0B99C9FB023B039AC2FB013B73
:1025B0001199009AC2FB083BCB180F9A4BEB5A714A
:1025C0004FEA537B23F06043119103624BEAC10B46
:1025D000029B0E9983FB0E3AC2FB073A0A9AC1FB93
:1025E000023A049A0D99C2FB013A0699099AC1FB75
:1025F000023A0799089AC1FB023A039A0599914653
:102600000C9AC9FB023A0B9AC1FB023A009A119943
:10261000C2FB0C3A019AC2FB083A1BEB03034AEBDC
:10262000517B4FEA537A23F0604343624AEACB0A74
:10263000029B83FB07120F9BC3FB04120B460E99F0
:1026400089460D99C9FB01321946049BC3FB0E1242
:102650000B46089989460999C9FB013207998946B1
:102660000A99C9FB0132059989460C99C9FB0132C7
:10267000069989460B99C9FB01321946019BC3FB98
:102680000C12039B99460B461146009AC9FB083170
:10269000C2FB06311AEB030341EB5B7A4FEA537B33
:1026A00023F0604383624BEACA0B029B83FB041254
:1026B0000F9BC3FB05120B460E9989461946049BD6
:1026C000C9FB0E12C3FB07120B46099989460A99EA
:1026D000C9FB0132079989460D99C9FB0132069958
:1026E00089460C99C9FB0132089989460B99C9FBA7
:1026F00001321946039BC3FB0C120B460599894610
:102700001146009AC9FB08319146109AC9FB023163
:10271000019A91460A460299C9FB06321BEB030354
:1027200042EB5A790A9A4FEA537A23F06043CDF884
:102730000090C3624AEAC90A049B83FB043BC1FBC5
:10274000053B9946079B0E99C3FB0E9B5B46934640
:102750000B9AC1FB07930C99CBFB0293099A934602
:102760000D9ACBFB0293069AC2FB0893089AC2FB10
:102770000193039A0599C2FB0693019AC1FB0C933E
:102780001099C2FB0193009A1AEB090A0E9943EBC8
:1027900052734FEA5A7B1A462AF060434BEAC20B47
:1027A0000363009281FB0439049AC2FB0539099A3C
:1027B000C2FB0E39079AC2FB07390A9A92460C9A55
:1027C000CAFB02390B9A92460D9ACAFB0239069A45
:1027D000C2FB0C39089AC2FB0839039A9246109A38
:1027E000CAFB0239059AC2FB06391BEB0303009AA8
:1027F0004FEA537B23F0604349EB52724363079BDC
:102800004BEAC20B83FB043AC1FB053A0B99C1FBAF
:102810000E3A0999C1FB073A0A99C1FB083A0D998A
:1028200089460C99C9FB013A0699C1FB063A0899F9
:10283000C1FB0C3A059989461099C9FB013A1BEB7B
:10284000030307994FEA537923F060434AEB52722E
:102850008363099B49EAC20983FB043BC1FB053B37
:102860000C99C1FB0E3B0B99C1FB073B0A99C1FBBD
:102870000C3B0D99C1FB083B06998A461946109BF3
:10288000CAFB031B089B9A460B460999CAFB063BE9
:1028900019EB03034FEA537A23F060434BEB527278
:1028A000C3630B9B4AEAC20A83FB0439C1FB0539A7
:1028B0000C99CEFB0839C1FB07390A99C1FB0639CF
:1028C0000D99C1FB0C3908998B461099CBFB013946
:1028D0001AEB03030B994FEA537B23F0604349EB58
:1028E000527203640C9B4BEAC20B83FB043AC1FB9C
:1028F000053A0A99CEFB0C3AC8FB073A894610996B
:10290000C9FB013A00930D99009BC1FB063A1BEBF2
:1029100003034FEA537B23F060434AEB527288FB78
:10292000049A43640C9B4BEAC20BC3FB059A4B46CB
:10293000CEFB063AC7FB0C3A9946109BC1FB039AA3
:102940001BEB090310994FEA537923F060434AEBDC
:10295000527283648CFB043A49EAC209C8FB053A07
:102960009846CEFB018A4346C7FB063A19EB0303A0
:102970004FEA537E23F060434AEB5272C36484FBF8
:10298000063A4EEAC20ECCFB053A9C46C7FB01CA8A
:102990001EEB0C0E4AEB527A84FB01424FEA5E7347
:1029A0002EF06047C6FB054243EACA0307651C19BF
:1029B00042EB5A72630F24F0604443EAC203446559
:1029C000520FC5FB0132590F23F0604341EAC201A7
:1029D000C0E9163113B0BDE8F08F00BFD0E9001296
:1029E000836802EB617221F0604103EB627C22F0AC
:1029F0006042C0E90012D0E90331426903EB6C7315
:102A000001EB637123F0604310B42CF0604402EBDF
:102A1000617C21F060418269C36002EB6C72C36922
:102A200001612CF060418460416103EB627122F02E
:102A3000604221F060448261C461D0E9083203EB56
:102A40006173816A02EB637223F0604301EB627190
:102A500022F060420362426221F06044C26A02EBEB
:102A60006172C0E90A425DF8044B7047F0B5034655
:102A700000F1400E1C69D3E90061D3E9022501EBA6
:102A8000667126F06046203302EB617243F8206CD9
:102A900021F0604105EB627522F0604743F81C1C91
:102AA00004EB657425F0604653F80C5C53F8081C81
:102AB00005EB647C53F8042C24F0604543F8187C43
:102AC00001EB6C712CF0604443F8105C02EB617216
:102AD0001D6843F8146C21F0604143F80C4C05EB81
:102AE0006275734522F0604243F8081C43E90125F2
:102AF000C0D1826CD0E9101303EB617321F0604107
:102B000002EB637423F06043C0E91013D0E9132192
:102B1000436D24F0604502EB6472856401EB6271E1
:102B200022F0604203EB6174836D21F06041C26466
:102B300003EB6473C26D016524F0604102EB6372C4
:102B400023F060434165C0E91632F0BD2DE9F04144
:102B5000034600F5087E9F68DE689969D3E9004264
:102B600002EB647824F0604407EB68771C601C6912
:102B700028F0604806EB677627F0604C04EB66743B
:102B800026F060475E69DF60C3E9018C06EB647C78
:102B900024F06046D3E9072501EB6C7120332CF05B
:102BA000604443F8106C02EB6172734521F06041A0
:102BB00043F80C4C05EB627522F0604243F8081CA8
:102BC00043E90125C7D1D0E98813D0F8282203EBC7
:102BD000617321F0604102EB637423F06043C0E94C
:102BE0008813D0E98B21D0F8343224F0604502EB11
:102BF0006472C0F8285201EB627122F0604203EB6C
:102C00006174D0F8383221F06041C0F82C2203EB17
:102C10006473D0F83C22C0F8301224F0604102EB1B
:102C2000637223F06043C0F83412C0E98E32BDE80D
:102C3000F08100BF2DE9F04F0F68A5B0D1E90596EE
:102C4000D1E9078487FB073200960492CE6A01948B
:102C50000396D1E9015CD1E909A4D1E903E2590F56
:102C600023F0604302920360049B41EAC30BCDF85A
:102C70008CB087FB05B31BEB0B0BCDF84CB043EBD3
:102C8000030B87FB0C23CDF850B0921885FB05B1E0
:102C90005B4112EB0B0B43EB0106CDF814B085FB47
:102CA0000CB302990696C7FB0EB31BEB0B0BCDF8CA
:102CB00054B043EB030B85FB0E23CDF858B0C7FB94
:102CC00001238CFB0CB192185B4112EB0B0B43EB15
:102CD00001020299CDF81CB085FB01B30892C7FB35
:102CE00009B3CCFB0EB31BEB0B0BCDF85CB043EB85
:102CF000030B85FB0923CDF860B0009EC7FB0623BC
:102D00000E46CCFB01238EFB0EB192185B4112EBF9
:102D10000B0B43EB0103CDF824B031460A93009B23
:102D200085FB03B3C7FB08B3CEFB06B3CCFB09B3EB
:102D30001BEB0B0B019ECDF864B043EB030B85FB43
:102D40000823CDF868B0C7FB0623009ECEFB0923FD
:102D5000CCFB06230E46921881FB01B15B4112EBBE
:102D60000B0B43EB0101019BCDF82CB00C9185FBC3
:102D700003B30099C7FB0AB3CEFB01B3CCFB08B386
:102D8000C6FB09B31BEB0B0B3146019ECDF86CB0B3
:102D900043EB030B85FB0A23CDF870B0C7FB04237C
:102DA000CEFB0823CCFB0623009EC1FB062389FB38
:102DB00009B19218039E5B4112EB0B0B019A43EB96
:102DC0000101CDF834B085FB04B30E91C7FB06B307
:102DD000029FCEFB02B3009ACCFB0AB30099C9FB59
:102DE00002B3C7FB08B31BEB0B0BCDF874B043EB7E
:102DF000030B8CFB0423CDF878B0C5FB0623019DA3
:102E0000C7FB052381FB0151CEFB0A23C9FB082325
:102E100092185B415219009D43EB01030199029204
:102E20000F938EFB04B3CCFB06B3C9FB01B3C7FB06
:102E30000AB3C5FB08B31BEB0B0C0D46CDF87CC0E9
:102E400043EB030C87FB0423CDF880C00099CEFB35
:102E50000623C1FB052388FB0851C9FB0A239218EE
:102E60005B41521943EB010310920199009A1193AF
:102E700089FB04B3C7FB06B3C8FB01B3C2FB0AB3AB
:102E80001BEB0B07219743EB030782FB04322297CE
:102E90000F46C9FB063281FB0151C8FB0A32DB1821
:102EA00088FB04E952415B1987FB04C542EB010131
:102EB000009A0193C8FB06C5C2FB06E9C7FB0AE9F5
:102EC0001EEB0E0E8AFB0A231291394649EB0909C3
:102ED0001CEB0C0C37468AFB04686D411CEB020CA2
:102EE000C1FB076845EB0305B61984FB0413009585
:102EF0003D468AFB072748EB080892187F41521885
:102F000084FB0514059D47EB0307239B49189A464C
:102F1000139B64411AEB030B149B9A46049B4AEBE8
:102F200053734FEA5B7A2BF0604B4AEAC30AC0F84E
:102F300004B01AEB050A069D4FEA5A7B2AF0604A54
:102F400045EB5373159DC0F808A04BEAC30B1BEB70
:102F5000050B169D4FEA5B7A2BF0604B45EB5373E4
:102F6000079DC0F80CB04AEAC30A1AEB050A089D8F
:102F70004FEA5A7B2AF0604A45EB5373179DC0F81D
:102F800010A04BEAC30B1BEB050B189D4FEA5B7AB5
:102F90002BF0604B45EB5373099DC0F814B04AEA1F
:102FA000C30A1AEB050A0A9D4FEA5A7B2AF0604AC7
:102FB00045EB5373199DC0F818A04BEAC30B1BEBEC
:102FC000050B1A9D4FEA5B7A2BF0604B45EB537370
:102FD0000B9DC0F81CB04AEAC30A1AEB050A0C9D07
:102FE0004FEA5A7B2AF0604A45EB53731B9DC0F8A9
:102FF00020A04BEAC30B1BEB050B1C9D4FEA5B7A31
:103000002BF0604B45EB53730D9DC0F824B04AEA9A
:10301000C30A1AEB050A0E9D4FEA5A7B2AF0604A52
:1030200045EB53731D9DC0F828A04BEAC30B1BEB67
:10303000050B1E9D4FEA5B7A2BF0604B45EB5373FB
:10304000029DC0F82CB04AEAC30A1AEB050A0F9D8C
:103050004FEA5A7B2AF0604A45EB53731F9DC0F834
:1030600030A04BEAC30B1BEB050B209D4FEA5B7AAC
:103070002BF0604B45EB5373109DC0F834B04AEA17
:10308000C30A1AEB050A119D4FEA5A7B2AF0604ADF
:1030900045EB5373219DC0F838A04BEAC30B1BEBE3
:1030A000050B229D4FEA5B7A2BF0604B45EB537387
:1030B000019DC0F83CB04AEAC30A1AEB050A129D0A
:1030C0004FEA5A7B2AF0604A45EB5373009DC0F8E3
:1030D00040A04BEAC30B1BEB0E0E49EB53734FEAB8
:1030E0005E7A2EF0604E4AEAC30AC0F844E01AEB5A
:1030F0000C0C45EB53752CF060434FEA5C7E836407
:103100004EEAC50E1EEB060648EB55784FEA567C94
:1031100026F060464CEAC80CC6641CEB020247EB82
:103120005877530F22F0604243EAC70302655B18E9
:10313000039944EB57745A0F23F0604342EAC402E8
:103140004365640FC1FB0124530F22F0604243EA40
:10315000C403C0E9162325B0BDE8F08F00232DE994
:10316000F0439C468046864601F59075CE680EF188
:10317000100ED1E9010751F8104BC4FB023C5C0F63
:103180004FEA6C7923F0604344EACC048D424EF858
:10319000103CC0FB02494FEA54734FEA697C24F0AB
:1031A000604443EAC9034EF80C4CC7FB023C1C4682
:1031B0004FEA53734FEA6C7724F0604443EACC0340
:1031C0004EF8084CC6FB02379C464FEA53732CF06E
:1031D00060444FEA677C43EAC7034EF8044CC5D10C
:1031E00023F06043C8F82031BDE8F083F0B5044611
:1031F0009446084601F18005A646DCF800700EF101
:10320000200E06680CF1200C1F402030F61BA8424F
:103210004EF8206C5CF81C6C50F81C7C06EA030627
:10322000A7EB06064EF81C6C5CF8186C50F8187C7E
:1032300006EA0306A7EB06064EF8186C5CF8146C59
:1032400050F8147C06EA0306A7EB06064EF8146C49
:103250005CF8106C50F8107C06EA0306A7EB060633
:103260004EF8106C5CF80C6C50F80C7C06EA030607
:10327000A7EB06064EF80C6C5CF8086C50F8087C5E
:1032800006EA0306A7EB06064EF8086C5CF8046C29
:1032900050F8047C06EA0306A7EB06064EF8046C19
:1032A000ABD1D2F8800003EA0005D1F88000401BC2
:1032B000C4F88000D2F8840003EA0005D1F8840045
:1032C000401BC4F88400D2F8880003EA0005D1F856
:1032D0008800401BC4F88800D2F88C00D1F88C20FC
:1032E0000340D31AC4F88C30F0BD00BFF0B54FF0E6
:1032F000000E0D1F00F18C07011F764651F8043FA8
:1033000055F8044F4FEAE37CC4FB023C13EB0E0379
:1033100046EB0C0C23F060444FEA537E8F424FEA99
:103320006C760C604EEACC0EE8D1D0F89030734445
:10333000C0F89030F0BD00BF00232DE9F0439C465B
:10334000864601F19005CE680EF1100ED1E9018795
:1033500051F8104BC4FB023C5C0F4FEA6C7923F030
:10336000604344EACC048D424EF8103CC8FB02494D
:103370004FEA54734FEA697C24F0604443EAC9037E
:103380004EF80C4CC7FB023C1C464FEA53734FEA05
:103390006C7724F0604443EACC034EF8084CC6FB3B
:1033A00002379C464FEA53732CF060444FEA677C27
:1033B00043EAC7034EF8044CC5D123F06043C0F87C
:1033C0009030BDE8F08300BFF0B50446944608464F
:1033D00001F18005A646DCF800600EF1200E0768BA
:1033E0000CF1200C1E4020303E44A8424EF8206CC8
:1033F0005CF81C6C50F81C7C06EA03063E444EF850
:103400001C6C5CF8186C50F8187C06EA03063E4405
:103410004EF8186C5CF8146C50F8147C06EA03063D
:103420003E444EF8146C5CF8106C50F8107C06EAC0
:1034300003063E444EF8106C5CF80C6C50F80C7CA3
:1034400006EA03063E444EF80C6C5CF8086C50F833
:10345000087C06EA03063E444EF8086C5CF8046CEF
:1034600050F8047C06EA03063E444EF8046CB2D1E0
:10347000D2F88000D1F8805018402844C4F8800069
:10348000D2F88400D1F8845018402844C4F884004D
:10349000D2F88800D1F8885018402844C4F8880031
:1034A000D2F88C00D1F88C2003401344C4F88C303F
:1034B000F0BD00BF2DE9F0430022A0F59079D0F8CF
:1034C0001C515342D1F81C712038D0F83861ED1BE3
:1034D000D1F8147125EA2373D1F818511A43761BD9
:1034E000D0F834515342A5EB070ED0F8307126EADC
:1034F0002373D1F804611343D0F828219446D1F8FE
:103500000821ACEB0208D0F82421D0F820C1961B8A
:10351000D1F80021ACEB020C5A422EEA2272D1E91A
:103520004345134320397D1BD0F82C715A42814505
:10353000A7EB040725EA227242EA0302C2F1000E59
:1035400027EA2E7E4EEA0202C2F1000E28EA2E7E03
:103550004EEA020ECEF1000226EA227242EA0E0E76
:10356000CEF100022CEA227242EA0E02A7D11046E6
:10357000BDE8F08330B501F5907E156820300C6809
:10358000203203EA050C2031A4EB0C04714540F80D
:10359000204C52F81C5C51F81C4C03EA050CA4EBBF
:1035A0000C0440F81C4C52F8185C51F8184C03EA13
:1035B000050CA4EB0C0440F8184C52F8145C51F8BC
:1035C000144C03EA050CA4EB0C0440F8144C52F81C
:1035D000105C51F8104C03EA050CA4EB0C0440F805
:1035E000104C52F80C5C51F80C4C03EA050CA4EB9F
:1035F0000C0440F80C4C52F8085C51F8084C03EAF3
:10360000050CA4EB0C0440F8084C52F8044C51F89B
:10361000045C04EA0304A5EB040440F8044CACD1B8
:1036200030BD00BFF0B54FF0000E0D1F00F58E77D6
:10363000011F764651F8043F55F8044F4FEAE37CEA
:10364000C4FB023C13EB0E0346EB0C0C23F060446E
:103650004FEA537E8F424FEA6C760C604EEACC0EF6
:10366000E8D1D0F820317344C0F82031F0BD00BF5C
:103670002DE9F041034600F5807E9F68DE68996978
:10368000D3E9004202EB647824F0604407EB6877EA
:103690001C601C6928F0604806EB677627F0604CD8
:1036A00004EB667426F060475E69DF60C3E9018C55
:1036B00006EB647C24F06046D3E9072501EB6C71CE
:1036C00020332CF0604443F8106C02EB61727345B8
:1036D00021F0604143F80C4C05EB627522F060422A
:1036E00043F8081C43E90125C7D1D0F80831D0E9D7
:1036F000404202EB647224F0604403EB627122F0FA
:103700006042C0E94042D0E9433221F0604403EB1B
:103710006173D0F81411C0F8084102EB637223F012
:10372000604301EB627122F06042C0F80C31C0F8D6
:10373000102121F06044D0F8182102EB6172C0E939
:103740004542BDE8F08100BFF0B5002500F5907757
:1037500083B08D6050F8043B8B601D2305E0026848
:1037600001353241CEF80C200430B84201EB850E11
:1037700003F11D04C3F1200610D0DEF808201F2C31
:103780000192026802FA03FC019AA3F1030342EAE0
:103790000C02CEF80820E2DC2346E5E7402201F5E2
:1037A00084703F230A6002E00B60013B04D350F8B1
:1037B000042D002AF8D04A6800204A6003B0F0BD0A
:1037C0002DE9F04F002505601368AB425EDD93687C
:1037D000934602F10C044FF0010C23F070434FF0BC
:1037E0001C0E2E46036093681B0F436004E02368A1
:1037F00023FA0EF3C35104340135DBF80030CEF167
:103800002009AB422EDD61452CDD23680CF1010857
:1038100050F82C204FEA8C0703FA09F38845AEF1E3
:10382000040943EA020323F0704340F82C3029DAFC
:103830000EF1180E236807F1040ABEF1200F23FAD7
:1038400009F326D80CF1020C23F07043614540F8CF
:103850000A3019DDBEF1200F07F10807C7D140F883
:103860002C60C8E70CF1010C61450BDD6FF04042A4
:103870000023624400EB82000CF1010C40F8043F8D
:103880006145F9DCBDE8F08FC446B4E74FF0010CA8
:10389000ECE7C446CE4640F80A30ACE7F0B5034644
:1038A00000F5DE7ED3E9004202EB247243F8042FD8
:1038B000734553F8042C22F0704243F8042CF1D1E4
:1038C00000254FF4BF74082381F87F512E4602680B
:1038D00081F87F2104F1010C8C4406E002681A4152
:1038E00008330CF8012DE4B174461B2B04F1FF3EA4
:1038F000F4DDD3F1240C0E5514BF671C27460135A7
:103900006F2D0DDC50F8042F7C1E11F807E0CCF170
:10391000080302FA0CF242EA0E02CA55002FD9D16E
:10392000F0BDC3F1240C2746E9E700BFF0B503461C
:1039300000F1C00E9969DA69D3E90047D3E902655D
:1039400007EB247724F0704406EB277627F07047C6
:1039500005EB267526F0704C1E6AC3F808C0C3E953
:1039600000471C6925F07047203304EB257453F899
:103970000C5C43F8147C734505EB247C24F0704503
:1039800001EB2C712CF0704443F8105C02EB2172B7
:1039900021F0704143F80C4C06EB227622F0704285
:1039A00043F8081C43E90126C4D1D0F8C820D0E967
:1039B000301303EB217321F0704102EB237423F0E9
:1039C0007043C0E93013D0E93321D0F8D43024F06B
:1039D000704502EB2472C0F8C85001EB227122F04E
:1039E000704203EB2174D0F8D83021F07041C0F858
:1039F000CC2003EB2473D0F8DC20C0F8D01024F0E6
:103A0000704102EB237223F07043C0F8D410C0E978
:103A10003632F0BDF0B5034600F1C00E9969DA699F
:103A2000D3E90047D3E9026507EB247724F070441B
:103A300006EB277627F0704705EB267526F0704CCD
:103A40001E6AC3F808C0C3E900471C6925F0704727
:103A5000203304EB257453F80C5C43F8147C734555
:103A600005EB247C24F0704501EB2C712CF07044A4
:103A700043F8105C02EB217221F0704143F80C4CCA
:103A800006EB227622F0704243F8081C43E9012637
:103A9000C4D1D0F8C830D0E9304202EB247224F00F
:103AA000704403EB227122F07042C0E93042D0E949
:103AB000333221F0704403EB2173D0F8D410C0F8F6
:103AC000C84002EB237223F0704301EB227122F015
:103AD0007042C0F8CC30C0F8D02021F07044D0F84B
:103AE000D82002EB2172C0E93542F0BD2DE9F0414A
:103AF000034600F5D07E9F68DE689969D3E90042ED
:103B000002EB247824F0704407EB28771C601C69D2
:103B100028F0704806EB277627F0704C04EB2674EB
:103B200026F070475E69DF60C3E9018C06EB247CF8
:103B300024F07046D3E9072501EB2C7120332CF0DB
:103B4000704443F8106C02EB2172734521F0704110
:103B500043F80C4C05EB227522F0704243F8081C28
:103B600043E90125C7D1D0E96813D0F8A82103EBB8
:103B7000217321F0704102EB237423F07043C0E9FC
:103B80006813D0E96B21D0F8B43124F0704502EB12
:103B90002472C0F8A85101EB227122F0704203EBAD
:103BA0002174D0F8B83121F07041C0F8AC2103EB9A
:103BB0002473D0F8BC21C0F8B01124F0704102EB9E
:103BC000237223F07043C0F8B411C0E96E32BDE82F
:103BD000F08100BF2DE9F041034600F5D07E9F68DB
:103BE000DE689969D3E9004202EB247824F070443E
:103BF00007EB28771C601C6928F0704806EB2776D5
:103C000027F0704C04EB267426F070475E69DF6085
:103C1000C3E9018C06EB247C24F07046D3E9072528
:103C200001EB2C7120332CF0704443F8106C02EB44
:103C30002172734521F0704143F80C4C05EB22755D
:103C400022F0704243F8081C43E90125C7D1D0E9AE
:103C50006843D0F8A82103EB247324F0704402EBEE
:103C6000237123F07043C0E96843D0E96B2321F04E
:103C7000704402EB2172D0F8B411C0F8A84103EBF4
:103C8000227322F0704201EB237123F07043C0F8DD
:103C9000AC21C0E96C31BDE8F08100BF2DE9F04FE7
:103CA000146899B0556896688F6801940295D46835
:103CB000CD6803961669049705940F6954691495A5
:103CC00006964D699669079708948F69D469099596
:103CD0000A96CD69166AD1F804900B680B970C947C
:103CE0009A460D950E960F6A546A4D6AD2F828E0EE
:103CF0000F971194D76A1095D1F82880D1F82CC06D
:103D0000D2E90C45D1E90C62CDE91232019B8AFB64
:103D1000032A110F22F0704241EA0A1B0260129935
:103D2000CDF854B083FB092B029BC1FB032B159BE1
:103D30009B18029A4BEB1A7A4FEA137B23F07043DD
:103D4000CDF854A04BEA0A1B436082FB093A039A60
:103D5000C1FB023A019A1146049AC1FB023A159935
:103D60001BEB03034AEB117B190F23F0704341EA6D
:103D70000B118360039B179189FB03A2129B1946C9
:103D8000059BC1FB03A2019BCDF858A09A46149B4A
:103D900015931946169BCAFB01321946029B9A4697
:103DA000049BCAFB03120B461799CB1842EB1B7AF4
:103DB000129A190F23F07043CDF850A0C36041EA66
:103DC0000A139246069A1693059B169989FB033BA4
:103DD000CAFB023B029A9246159ACAFB023B039A1F
:103DE0009246049ACAFB023B019A9246079ACAFB82
:103DF000023B149ACB184BEB127A129A190F23F04C
:103E000070439346CDF850A0036141EA0A13089A23
:103E10001693069B89FB033ACBFB023A039A93461F
:103E2000159ACBFB023A049A9346059ACBFB023AC9
:103E3000019A9346099ACBFB023A029A9346079A53
:103E4000CBFB023A169AD318149A4AEB127B1A0F3C
:103E500023F07043436142EA0B131693089B89FBDE
:103E600003A2129B51469A460A9BCAFB0312059B6A
:103E700014919A46159B1946149BCAFB01321946A8
:103E8000049B9A46069BCAFB0312029B9A46099B17
:103E9000CAFB0312039B9A46079BCAFB0312019BB2
:103EA0009A460B9BCAFB03120B461699CB1842EBA2
:103EB0001B7A129A190F23F07043CDF850A083613A
:103EC00041EA0A1392460C9A16930A9B89FB033B1C
:103ED000CAFB023B159A1146069AC1FB023B049AA3
:103EE00016999246089ACAFB023B039A9246099A8F
:103EF000CAFB023B059A9246079ACAFB023B019A0B
:103F000092460D9ACAFB023B029A92460B9ACAFB52
:103F1000023B149ACB184BEB127A129A190F23F02A
:103F20007043CDF850A0C36141EA0A130E9916936D
:103F30000C9B89FB033AC2FB013A159A9346089AF7
:103F4000CBFB023A049A93460A9ACBFB023A059AB3
:103F50009346099ACBFB023A069A9346079ACBFB03
:103F6000023A029A93460D9ACBFB023A039A934681
:103F70000B9ACBFB023A019A93460F9ACBFB023A7B
:103F8000169AD318149A4AEB127B1A0F23F0704337
:103F9000036242EA0B1389FB01A21693129B51465E
:103FA0009A46119BCAFB03120B46159914918A4637
:103FB0000A99CAFB01321946049B9A460C9BCAFB1C
:103FC00003120B4606998A460999CAFB01320799E2
:103FD0008A460899CAFB01321946039B9A460D9BF3
:103FE000CAFB03120B4605998A460B99CAFB01329C
:103FF0001946019B9A46109BCAFB0312029B9A46E4
:104000000F9BCAFB03120B461699CB1842EB1B7A87
:10401000129A190F23F0704341EA0A114362119B6F
:10402000159189FB033B1499C2FB0E3B0A460C9980
:10403000C2FB013B049A0E99C2FB013BDDE9081269
:10404000C1FB023B07990A9AC1FB023B05990D9AF5
:10405000C1FB023B06990B9AC1FB023B029A1099E5
:10406000C2FB013B039A0F99C2FB013B1599019AD0
:10407000C2FB083BCB18129A4BEB1A714FEA137B29
:1040800023F0704315914BEA011B8362149989FB5D
:104090000E3AC2FB073A0A460E99C2FB013A049A4D
:1040A0001146119AC1FB023ADDE90921C2FB013A2E
:1040B00007990C9AC1FB023A06990D9AC1FB023A84
:1040C00008990B9AC1FB023A039A1146109AC1FB58
:1040D000023A05990F9AC1FB023A019A1599C2FB5F
:1040E0000C3A029AC2FB083A1BEB03034AEB117B22
:1040F00089FB07A2190F23F0704341EA0B11C36239
:10410000129B15911499C3FB04A253468A46119938
:10411000CAFB01321946049B9A460B460999CAFB11
:104120000E328A460C99CAFB013207998A460E99CB
:10413000CAFB013208998A460D99CAFB01320A99D5
:104140008A460B99CAFB013205998A461099CAFB27
:10415000013206998A460F99CAFB01321946029B21
:10416000C3FB0C12039B9A460B46CAFB083211464E
:10417000019A92460A461599CAFB0632CB1842EBC1
:104180001B7189FB04A24FEA137B23F07043159146
:104190004BEA011B03631499129BC3FB05A2049B0A
:1041A000C1FB0EA20999C3FB07A253468A460E998A
:1041B000CAFB013207998A461199CAFB01320A9952
:1041C0008A460D99CAFB01320B998A460C99CAFBA3
:1041D000013206998A461099CAFB013208998A462B
:1041E0000F99CAFB01321946039B9A460B46059963
:1041F000CAFB0C32C1FB08321146019A9246139A4F
:10420000CAFB0231029A92460A461599CAFB063247
:104210001BEB03034FEA137A23F0704342EB117157
:104220000B9A4363049B4AEA011A019183FB043B06
:104230001499C9FB053B9946079BC3FB0E9B5B4644
:1042400093460E9AC1FB0793CBFB0293099A9346C0
:10425000119ACBFB02930A9A93460F9ACBFB0293D7
:104260000C9A93460D9ACBFB0293069A1099C2FBC7
:104270000893089AC2FB0193039A0599C2FB06931F
:10428000029AC1FB0C931399C2FB019301991AEB9B
:10429000090A43EB117314994FEA1A7B1A462AF064
:1042A000704301924BEA021B8363049A81FB043939
:1042B000C2FB0539099AC2FB0E39079AC2FB0739BE
:1042C0000D9A92460E9ACAFB02390B9A9246119A9F
:1042D000CAFB02390A9A9246109ACAFB02390C9A12
:1042E00092460F9ACAFB0239069AC2FB0C39089A09
:1042F000C2FB0839039A9246139ACAFB0239059AFF
:10430000C2FB06391BEB0303019A4FEA137B23F030
:10431000704349EB1272C363079B4BEA021B83FB9A
:10432000043AC1FB053A0B99C1FB0E3A0999C1FB4E
:10433000073A0E9989460F99C9FB013A0D998946AA
:104340001199C9FB013A0A99C1FB083A0C998946AF
:104350001099C9FB013A0699C1FB063A0899C1FBBD
:104360000C3A059989461399C9FB013A1BEB0303E3
:1043700007994FEA137923F070434AEB12720364F2
:10438000099B49EA021983FB043BC1FB053B0D99DC
:10439000C1FB0E3B0B99C1FB073B0E998A46109956
:1043A000CAFB013B0F998A461199CAFB013B0A9946
:1043B000C1FB0C3B0C99C1FB083B06998A46194688
:1043C000139BCAFB031B089B9A460B460999CAFB21
:1043D000063B19EB03034FEA137A23F070434BEBD0
:1043E000127243640B9B4AEA021A83FB0439C1FB35
:1043F00005390F99C1FB0E390D99C1FB07390E998B
:10440000C1FB083911998B461099CBFB01390A99E8
:10441000C1FB06390C99C1FB0C3908998B461399DD
:10442000CBFB01391AEB03030B994FEA137B23F003
:10443000704349EB127283640D9B4BEA021B83FBB2
:10444000043AC1FB053A1099C1FB0E3A0F99C1FB22
:10445000073A0E99C1FB0C3A1199C1FB083A0A9927
:1044600089461946139BC9FB031A0C9B99460B46B8
:104470000D99C9FB063A1BEB03034AEB12790F9A1D
:104480004FEA137B23F07043C3644BEA091B82FBA2
:104490000432C1FB05321099CEFB0832C1FB073252
:1044A0000E99C1FB06321199C1FB0C320C998A4658
:1044B0001399CAFB01321BEB03030F9942EB1972EC
:1044C0004FEA137923F07043036549EA0219109B00
:1044D00083FB043AC1FB053A0E99CEFB0C3AC8FBAC
:1044E000073A8B461399CBFB013A01931199019B33
:1044F000C1FB063A19EB030929F070434AEB12722B
:104500004FEA197B88FB04A94365109B4BEA021B09
:10451000C3FB05A95346CEFB0639C7FB0C399A46A7
:10452000139BC1FB03A91BEB0A0313994FEA137AF0
:1045300023F0704349EB127283658CFB04394AEA1D
:10454000021AC8FB05399B46C846CEFB01B85B463C
:10455000C646C7FB063E1AEB03034EEB12724FEA48
:10456000137E23F07043C3654EEA021E84FB063AB5
:10457000CCFB053A9C46C7FB01CA1EEB0C0E4AEB6E
:10458000127A84FB01424FEA1E732EF07047C6FB7D
:10459000054243EA0A1307661C1942EB1A72230FFD
:1045A00024F0704443EA02134466120FC5FB013243
:1045B000190F23F0704341EA0211C0E91A3119B012
:1045C000BDE8F08FD0E90013826803EB217321F07E
:1045D000704102EB237C23F07043C0E90013D0E963
:1045E0000321436902EB2C7201EB227122F070422D
:1045F00010B42CF0704403EB217C21F070418369EE
:10460000C26003EB2C73C26901612CF0704102EBB4
:10461000237C23F0704341618361836A84602CF0C2
:104620007044D0E90821C46102EB2C725DF8044BA0
:1046300001EB227122F0704203EB217CC36A02621B
:1046400021F0704103EB2C73026B41622CF070413E
:1046500002EB237223F070438162C36222F0704147
:10466000436B03EB2273C0E90C137047F0B50346AC
:1046700000F1600E1C69D3E90076D3E9022506EB50
:10468000277627F0704702EB267226F0704605EB7E
:10469000227522F07041C3E9007604EB257425F001
:1046A00070475D69C3E9021705EB247C996924F022
:1046B000704501EB2C712CF070441D61D3E9072685
:1046C000203302EB217221F07041734543F80C4C0A
:1046D00006EB227622F0704243F8081C43E90126DB
:1046E000C8D1826ED0E9181303EB217321F0704119
:1046F00002EB237223F07043C0E91813C36E22F05B
:10470000704103EB2273C0E91A13F0BD2DE9F041AB
:10471000034600F5587E9F68DE689969D3E9004238
:1047200002EB247824F0704407EB28771C601C69A6
:1047300028F0704806EB277627F0704C04EB2674BF
:1047400026F070475E69DF60C3E9018C06EB247CCC
:1047500024F07046D3E9072501EB2C7120332CF0AF
:10476000704443F8106C02EB2172734521F07041E4
:1047700043F80C4C05EB227522F0704243F8081CFC
:1047800043E90125C7D1D0E9D813D0F8682303EB5A
:10479000217321F0704102EB237423F07043C0E9D0
:1047A000D813D0E9DB21D0F8743324F0704502EB44
:1047B0002472C0F8685301EB227122F0704203EBBF
:1047C0002174D0F8783321F07041C0F86C2303EBEA
:1047D0002473D0F87C23C0F8701324F0704102EBEE
:1047E000237223F07043C0F87413C0E9DE32BDE8D1
:1047F000F08100BF2DE9F04F0F68AFB08C6987FBE7
:104800000732039408924A69D1E90764D1E9015C4F
:1048100001940692D1E90BA4D1E903E9D1E9098217
:1048200002944C6B190F23F07043049205940360BB
:10483000089B41EA031BCDF8B4B087FB05B31BEB23
:104840000B0BCDF864B043EB030B87FB0C23CDF8C7
:1048500068B0921885FB05B15B4112EB0B0B43EB83
:104860000104CDF824B085FB0CB30A94C7FB0EB34A
:104870001BEB0B0BCDF86CB043EB030B85FB0E234E
:10488000CDF870B0C7FB09238CFB0CB192185B41CB
:1048900012EB0B0B43EB0101CDF82CB085FB09B3F8
:1048A0000C910699019CC7FB01B3CCFB0EB31BEB2B
:1048B0000B0B0796CDF874B043EB030B85FB01237C
:1048C0000399CDF878B0C7FB01238EFB0EB1CCFB6A
:1048D000092392185B4112EB0B0B039A43EB010384
:1048E000CDF834B006990E9385FB02B3C7FB06B32F
:1048F000CEFB09B3CCFB01B31BEB0B0BCDF87CB0AB
:1049000043EB030B85FB0623CDF880B0C7FB0423E4
:10491000CEFB01230399049CCCFB012389FB09B145
:1049200092185B4112EB0B0B039A43EB01030199C5
:10493000CDF83CB0109385FB01B30699C7FB08B3D3
:10494000CEFB02B3CCFB06B3C9FB01B31BEB0B0BD5
:10495000CDF884B043EB030B85FB0823CDF888B07A
:10496000C7FB0423CEFB0623019E0C4681FB01B14D
:10497000CCFB0623039EC9FB062392185B4112EB76
:104980000B0B019A43EB0106049BCDF844B0214682
:10499000129685FB03B3039EC7FB0AB3CEFB02B39B
:1049A000CCFB08B3C4FB06B3079E029CC9FB06B34D
:1049B0001BEB0B0BCDF88CB043EB030B85FB0A23F1
:1049C000CDF890B0C7FB0423049CCEFB0823CCFB9E
:1049D0000423C1FB06230199039EC9FB01239218FE
:1049E00086FB06B1059C5B41019E12EB0B0B049A02
:1049F00043EB0101029BCDF84CB0149185FB03B34E
:104A00000699C7FB04B3039FCEFB02B3CCFB0AB3EA
:104A1000C1FB06B3079E029AC9FB08B3C7FB06B3E6
:104A20001BEB0B0BCDF894B043EB030B8CFB022379
:104A3000CDF898B0C5FB0423049CC9FB0423019C5A
:104A4000CEFB0A23C7FB04230F46C1FB082386FBCA
:104A500006519218049C5B415519019A069543EB47
:104A60000105029907958EFB01B3059D3946CCFBE4
:104A700005B3C7FB04B3039FC9FB0AB3C6FB02B36C
:104A8000049CC7FB08B31BEB0B0CCDF89CC043EB9D
:104A9000030C029BCDF8A0C089FB0323CEFB0523AA
:104AA000C7FB04230F46C1FB0A230199C6FB082359
:104AB000921881FB01515B415519029A43EB0101A8
:104AC000159587FB02B3254616913946059A039F33
:104AD000C9FB02B3C6FB04B3019CC7FB0AB3C4FB0A
:104AE00008B31BEB0B0C059CCDF8A4C043EB030CE7
:104AF000029BCDF8A8C087FB0323C1FB04232946F2
:104B0000019DC5FB012388FB0851C6FB0A239218AF
:104B10005B415519019A039543EB010502991795DD
:104B200086FB01B3049DC7FB04B3C8FB05B3C2FBFE
:104B30000AB31BEB0B072B9743EB030782FB0132F6
:104B40002C97C6FB04322E46C8FB0A3285FB055162
:104B5000DB1852415F19019B049742EB0107029A4F
:104B60003146189788FB02E981FB02C5C3FB04E9C3
:104B7000C6FB0AE91EEB0E0EC8FB04C516468AFBEF
:104B80000A2349EB09091CEB0C0C8AFB06686D41F2
:104B90001CEB020CC1FB04688AFB042745EB0305F0
:104BA000B619029B48EB0808921883FB03137F4158
:104BB0005118029A47EB030701912D9B82FB0414C5
:104BC000099A49189A46199B64411AEB030B1A9BE0
:104BD0009A46089B4AEB13734FEA1B7A2BF0704BF3
:104BE0004AEA031AC0F804B01AEB020A0A9A4FEA1A
:104BF0001A7B2AF0704A42EB13731B9AC0F808A084
:104C00004BEA031B1BEB020B1C9A4FEA1B7A2BF09F
:104C1000704B42EB1373C0F80CB04AEA031A0B9ABC
:104C20001AEB020A0C9A4FEA1A7B2AF0704A42EBFE
:104C300013731D9AC0F810A04BEA031B1BEB020B69
:104C40001E9A4FEA1B7A2BF0704B42EB13730D9AAE
:104C5000C0F814B04AEA031A1AEB020A0E9A4FEA95
:104C60001A7B2AF0704A42EB13731F9AC0F818A0FF
:104C70004BEA031B1BEB020B209A4FEA1B7A2BF02B
:104C8000704B42EB13730F9AC0F81CB04AEA031A38
:104C90001AEB020A109A4FEA1A7B2AF0704A42EB8A
:104CA0001373219AC0F820A04BEA031B1BEB020BE5
:104CB000229A4FEA1B7A2BF0704B42EB1373119A36
:104CC000C0F824B04AEA031A1AEB020A129A4FEA11
:104CD0001A7B2AF0704A42EB1373239AC0F828A07B
:104CE0004BEA031B1BEB020B249A4FEA1B7A2BF0B7
:104CF000704B42EB1373139AC0F82CB04AEA031AB4
:104D00001AEB020A149A4FEA1A7B2AF0704A42EB15
:104D10001373259AC0F830A04BEA031B1BEB020B60
:104D2000269A4FEA1B7A2BF0704B42EB1373069ACC
:104D3000C0F834B04AEA031A1AEB020A079A4FEA9B
:104D40001A7B2AF0704A42EB1373C0F838A04BEA82
:104D5000031B279A1BEB020B289A4FEA1B7A2BF0B6
:104D6000704B42EB1373159AC0F83CB04AEA031A31
:104D70001AEB020A169A4FEA1A7B2AF0704A42EBA3
:104D80001373299AC0F840A04BEA031B1BEB020BDC
:104D90002A9A4FEA1B7A2BF0704B42EB1373039A5B
:104DA000C0F844B04AEA031A1AEB020A179A4FEA0B
:104DB0001A7B2AF0704A42EB13732B9AC0F848A072
:104DC0004BEA031B1BEB020B2C9A4FEA1B7A2BF0CE
:104DD000704B42EB1373049AC0F84CB04AEA031AC2
:104DE0001AEB020A189A4FEA1A7B2AF0704A42EB31
:104DF0001373C0F850A04BEA031B1BEB0E0E49EBDC
:104E000013734FEA1E7A2EF0704E4AEA031AC0F866
:104E100054E01AEB0C0C45EB13752CF070434FEA81
:104E20001C7E83654EEA051E019B1EEB060648EBC1
:104E300015784FEA167C26F070464CEA081CC665C9
:104E40001CEB030247EB1877130F22F0704243EA82
:104E5000071302665B1844EB17741A0F23F07043B4
:104E600042EA04124366240F059BC3FB0324130F7D
:104E700022F0704243EA0413C0E91A232FB0BDE8C0
:104E8000F08F00BF00232DE9F0439C468046864604
:104E900001F5E075CE680EF1100ED1E9010751F869
:104EA000104BC4FB023C1C0F4FEA2C7923F07043DB
:104EB00044EA0C148D424EF8103CC0FB02494FEA04
:104EC00014734FEA297C24F0704443EA09134EF826
:104ED0000C4CC7FB023C1C464FEA13734FEA2C777D
:104EE00024F0704443EA0C134EF8084CC6FB02371A
:104EF0009C464FEA13732CF070444FEA277C43EA38
:104F000007134EF8044CC5D123F07043C8F8C031E4
:104F1000BDE8F08330B501F1E00E156820300C6873
:104F2000203203EA050C2031A4EB0C04714540F853
:104F3000204C52F81C5C51F81C4C03EA050CA4EB05
:104F40000C0440F81C4C52F8185C51F8184C03EA59
:104F5000050CA4EB0C0440F8184C52F8145C51F802
:104F6000144C03EA050CA4EB0C0440F8144C52F862
:104F7000105C51F8104C03EA050CA4EB0C0440F84B
:104F8000104C52F80C5C51F80C4C03EA050CA4EBE5
:104F90000C0440F80C4C52F8085C51F8084C03EA39
:104FA000050CA4EB0C0440F8084C52F8044C51F8E2
:104FB000045C04EA0304A5EB040440F8044CACD1FF
:104FC00030BD00BFF0B54FF0000E0D1F00F1DC0743
:104FD000011F764651F8043F55F8044F4FEAE37C31
:104FE000C4FB023C13EB0E0346EB0C0C23F07044A5
:104FF0004FEA137E8F424FEA2C760C604EEA0C1E6D
:10500000E8D1D0F8E0307344C0F8E030F0BD00BF24
:1050100000232DE9F0439C46864601F1E005CE6869
:105020000EF1100ED1E9018751F8104BC4FB023C80
:105030001C0F4FEA2C7923F0704344EA0C148D4284
:105040004EF8103CC8FB02494FEA14734FEA297C22
:1050500024F0704443EA09134EF80C4CC7FB023CA1
:105060001C464FEA13734FEA2C7724F0704443EA4E
:105070000C134EF8084CC6FB02379C464FEA1373DC
:105080002CF070444FEA277C43EA07134EF8044C97
:10509000C5D123F07043C0F8E030BDE8F08300BF15
:1050A00001F1E00C30B4146820300D6820321C404F
:1050B00020312C44614540F8204C52F81C4C51F8EA
:1050C0001C5C04EA03042C4440F81C4C52F8184CB5
:1050D00051F8185C04EA03042C4440F8184C52F8C8
:1050E000144C51F8145C04EA03042C4440F8144CAA
:1050F00052F8104C51F8105C04EA03042C4440F8B8
:10510000104C52F80C4C51F80C5C04EA03042C448B
:1051100040F80C4C52F8084C51F8085C04EA0304BF
:105120002C4440F8084C52F8044C51F8045C04EA52
:1051300003042C4440F8044CB5D130BC704700BF88
:105140002DE9F0430022A0F5E079D0F8BC5153429C
:10515000D1F8BC712038D0F8D861ED1BD1F8B4710A
:1051600025EAE363D1F8B8511A43761BD0F8D4513D
:105170005342A5EB070ED0F8D07126EAE363D1F8CD
:10518000A4611343D0F8C8219446D1F8A821ACEB10
:105190000208D0F8C421D0F8C0C1961BD1F8A021D4
:1051A000ACEB020C5A422EEAE262D1E96B451343A2
:1051B00020397D1BD0F8CC715A428145A7EB0407FA
:1051C00025EAE26242EA0302C2F1000E27EAEE6E2D
:1051D0004EEA0202C2F1000E28EAEE6E4EEA020E1C
:1051E000CEF1000226EAE26242EA0E0ECEF10002A1
:1051F0002CEAE26242EA0E02A7D11046BDE8F08333
:1052000030B501F5E07E156820300C68203203EAE5
:10521000050C2031A4EB0C04714540F8204C52F8E9
:105220001C5C51F81C4C03EA050CA4EB0C0440F880
:105230001C4C52F8185C51F8184C03EA050CA4EB0E
:105240000C0440F8184C52F8145C51F8144C03EA62
:10525000050CA4EB0C0440F8144C52F8105C51F807
:10526000104C03EA050CA4EB0C0440F8104C52F867
:105270000C5C51F80C4C03EA050CA4EB0C0440F850
:105280000C4C52F8085C51F8084C03EA050CA4EBEE
:105290000C0440F8084C52F8044C51F8045C04EA41
:1052A0000304A5EB040440F8044CACD130BD00BFAE
:1052B000F0B54FF0000E0D1F00F5DE77011F7646AA
:1052C00051F8043F55F8044F4FEAE37CC4FB023C1D
:1052D00013EB0E0346EB0C0C23F070444FEA137EE5
:1052E0008F424FEA2C760C604EEA0C1EE8D1D0F8C3
:1052F000C0317344C0F8C031F0BD00BFF0B5002527
:1053000000F5E07783B08D6050F8043B8B601C2380
:1053100005E0026801353241CEF80C200430B84275
:1053200001EB850E03F11C04C3F1200610D0DEF85A
:1053300008201F2C0192026802FA03FC019AA3F1D3
:10534000040342EA0C02CEF80820E2DC2346E5E73B
:10535000602201F5C4705F230A6002E00B60013B2C
:1053600004D350F8042D002AF8D04A6800204A607F
:1053700003B0F0BD2DE9F84F804600F58E790D465B
:105380001646C24608F58C7744464846FCF73AFF75
:1053900022682046294606FB02F222F06042FEF710
:1053A00041F954F8042B2368A74203EB627323608E
:1053B000EED1D8F818213846294608F5807406FB46
:1053C00002F2C2F31102FEF72DF9D8E9460202EB10
:1053D000607220F06040D317D602DB02C8E94602B3
:1053E000801443EA5253361843F10003DAF820E1FF
:1053F000720FDAF824C126F060464FEAEE710AF126
:10540000200A42EAC3024AF8206C4FEACE27C902BA
:10541000B8184FEAEC7641EA5E51DAF808714FEAC3
:10542000507E20F0604041EBE3714FEACC224AF815
:105430001C0C4EEAC10EF60212EB0E024FEAE770A8
:1054400046EA5C564FEA527322F0604246EBE17145
:10545000DAF80C614FEAC72B4AF8182C43EAC1036B
:10546000C0021BEB03034FEAE67E40EA57504FEAC7
:10547000537223F0604340EBE177DAF81001F10258
:105480004AF8143C42EAC7024FEACE2E89184FEA86
:10549000C02B4EEA565E4FEA517221F060414EEB4E
:1054A000E77CDAF81471C6174AF8101C42EACC02FD
:1054B000F6021BEB02024FEAE77346EA50564FEA48
:1054C000527122F0604246EBEC7CF8024AF80C2C58
:1054D00041EACC01DB02401843EA5753DAF818716D
:1054E0004FEA507120F0604043EBEC7CFA174AF829
:1054F000080CFE02D30241EACC0143EA5753DAF822
:105500001C7172184FEAE77143EBEC73500F22F0F5
:105510006042FE0240EAC3004AF8042CC902361871
:1055200041EA575141EBE37354457FF45FAFD8F83C
:105530002022740F26F060464846D11744EAC3047F
:10554000C8F80061C90241EA5251D202121941EB76
:10555000E374D8F82432560F22F06042D91746EA95
:10556000C406C8F80421C90241EA5351DB029A1962
:10557000D8F8283241EBE474D917560F22F0604274
:10558000C90246EAC406C8F8082141EA5351DB02C1
:105590009A19D8F82C3241EBE474D917560F22F03F
:1055A0006042C90246EAC406C8F80C2141EA5351D8
:1055B000DB029A19D8F8303241EBE471540F22F033
:1055C0006042C8F81021DA1744EAC104D20242EA64
:1055D0005352DB021B1942EBE1715A0F23F0604377
:1055E00042EAC102C8F81431D8F83432002102EB83
:1055F000C3234FF48E72C8F818310FF0E5FCD5F8CC
:105600001831D8F818012A46DB4341460344404686
:10561000DB17DB43FDF7AEFF4046BDE8F84FFCF774
:10562000F1BD00BF2DE9F047804600F190090D461D
:105630001646C24608F18C0744464846FCF790FDE2
:1056400022682046294606FB02F222F06042FDF75E
:105650004DFE54F8042B2368A74203EB62732360CA
:10566000EED1D8F88C202946384606FB02F2C2F368
:105670000802FDF73BFED8E9233101EB637123F00B
:105680006043CA175C121205C8E923310B0542EAD0
:10569000113208F180011B1942F10006DAF894C0BA
:1056A0005C0FDAF8987023F060434FEAEC700AF16F
:1056B000200A44EAC6044AF8203C4FEA0C5200058E
:1056C00012194FEAE77340EA1C304FEA527422F095
:1056D000604240EBE6701E054AF81C2C44EAC00408
:1056E000DAF87C203B0546EA17361B194FEAE277C9
:1056F0004FEA025446EBE07023F0604C5B0FDAF89F
:1057000080603F054AF818CC43EAC00347EA1237E5
:10571000E3184FEAE6744FEA065247EBE07723F0CE
:1057200060405B0F24054AF8140C43EAC70344EABF
:105730001634DAF88460D3184FEAE67044EBE77762
:1057400023F0604C5B0FDAF8884032054AF810CC41
:1057500043EAC7030005D3184FEA045240EA163063
:1057600023F0604C4FEAE47640EBE770DAF88C7097
:105770005B0F4AF80CCC360543EAC00346EA143600
:10578000D2184FEAE7744FEA075346EBE07622F06F
:105790006040520F24054AF8080C42EAC60244EA67
:1057A0001734DAF890709B184FEAE77044EBE67212
:1057B00023F060445B0F4FEA075C4AF8044C000595
:1057C00043EAC20340EA17301CEB030340EBE276E6
:1057D00051457FF463AFD8F81421590F23F060438B
:1057E0004846D417C8F8803041EAC601130524059D
:1057F0005918D8F8183144EA123444EBE6724C0FC9
:1058000021F06041C8F88410D91744EAC2040905A0
:1058100041EA13311B051B1941EBE272590F23F0CA
:10582000604341EAC201C8F88830D8F81C319022A0
:1058300001EB0351C8F88C1000210FF0C5FBD5F81F
:105840008C30D8F88C002A46DB434146034440465E
:10585000DB17DB43FDF7CAFC4046BDE8F047FCF729
:105860007FBC00BF2DE9F84F804600F5DC790D467E
:105870001646C24608F5DA7744464846FEF736F93A
:1058800022682046294606FB02F222F07042FFF70A
:105890000FFD54F8042B2368A74203EB2273236007
:1058A000EED1D8F8B4213846294608F5D07406FB65
:1058B00002F2C2F31302FFF7FBFCD8E96D1202EB10
:1058C000217221F07041D31708151B02C8E96D122F
:1058D000110243EA1263091843F10003DAF8BCC16C
:1058E0004FEA117EDAF8C00121F070414FEAEC77FF
:1058F0004EEA031ECAF800104FEA0C22DAF8C4116F
:105900003F0212EB0E024FEAE07647EA1C674FEACD
:10591000127C22F0704247EBE3774FEA002ECAF880
:1059200004204CEA071C36021EEB0C02DAF8C8E130
:1059300046EA10664FEA127B22F0704246EBE776A9
:10594000C8174BEA061B0B024FEAEE77000213EB77
:105950000B034FEA072740EA116047EA1E6740EB56
:10596000E6704FEA0E21DAF8CCE14FEA137B23F020
:1059700070434FEAEE764BEA001B360211EB0B0147
:1059800046EA1E6647EBE070CAE902234FEA0E22A0
:10599000DAF8D0314FEA117E21F070414FEAE37C12
:1059A0000AF1200A4EEA001E4AF8101C4FEA032BA7
:1059B00012EB0E024FEA0C27DAF8B4E146EBE07680
:1059C000100F22F0704247EA136740EA06104AF8C7
:1059D0000C2C4FEAEE731BEB00004FEA0E214FEA4E
:1059E000032347EBE67C020F20F0704043EA1E637E
:1059F000DAF8B8E142EA0C124AF8080C4FEAEE76FF
:105A00008A184FEA0E274FEA062643EBEC73110F74
:105A100022F0704246EA1E6641EA03114AF8042C5D
:105A2000791846EBE37354457FF458AFD8F85C23FC
:105A30000C0F21F07041484644EA0314C8F8A01145
:105A4000D117090241EA12611202121941EBE37403
:105A5000D8F86033160F22F07042D91746EA0416C0
:105A6000C8F8A421090241EA13611B029A19D8F867
:105A7000643341EBE474D917160F22F07042090227
:105A800046EA0416C8F8A82141EA13611B029A19D4
:105A9000D8F8683341EBE471140F22F07042C8F873
:105AA000AC21DA1744EA0114120242EA13621B0223
:105AB0001B1942EBE1711A0F23F0704342EA011205
:105AC000C8F8B031D8F86C33002102EB03234FF44F
:105AD000DC72C8F8B4310FF077FAD5F8B431D8F8E1
