:020000040800F2
:10000000000600207D0600087F0600087F06000825
:100010007F0600087F0600087F0600087F060008AC
:100020007F0600087F0600087F060008E915010822
:100030007F0600087F0600087F0600087F0600088C
:100040007F0600087F0600087F0600087F0600087C
:100050007F0600087F060008CD2D0108F92D010854
:10006000252E0108512E01087D2E01085DF600089D
:1000700085F60008B1F60008DDF6000809F700086B
:1000800031F700085DF700087F0600087F060008CA
:100090007F0600087F0600087F060008A92E0108D9
:1000A0007F0600087F0600087F0600087F0600081C
:1000B0007F0600087F0600087F0600087F0600080C
:1000C0007F0600087F0600087F0600087F060008FC
:1000D0007F0600087F0600087F0600087F060008EC
:1000E0000D2F01087F0600087F0600087F06000824
:1000F0007F0600087F0600087F06000889F70008D1
:100100007F0600087F060008952F01087F0600087B
:100110007F0600087F0600087F0600087F060008AB
:10012000B5F70008DDF7000809F8000835F8000801
:1001300061F800087F0600087F0600087F060008B7
:100140007F0600087F0600087F0600087F0600087B
:1001500089F80008B5F80008E1F800087F060008F3
:100160007F0600087F0600087F0600087F0600085B
:100170007F060008D52101087F0600087F060008D9
:100180007F0600087F060008812F01087F0600080F
:100190007F0600087F0600087F0600087F0600082B
:1001A0007F0600087F0600087F0600087F0600081B
:1001B0007F0600087F0600087F0600087F0600080B
:1001C0007F0600087F0600087F0600087F060008FB
:1001D0007F060008C12101087F0600087F0600088D
:1001E0007F0600087F0600087F0600087F060008DB
:1001F0007F0600087F0600087F0600087F060008CB
:100200007F0600087F0600087F0600087F060008BA
:100210007F0600087F0600087F0600087F060008AA
:100220007F0600087F0600087F0600087F0600089A
:100230007F0600087F0600087F0600087F0600088A
:100240007F0600087F0600087F0600087F0600087A
:100250007F0600087F0600087F0600087F0600086A
:100260007F0600087F0600087F0600087F0600085A
:100270007F0600087F0600087F0600087F0600084A
:100280007F0600087F0600087F0600087F0600083A
:100290007F0600087F0600087F0600087F0600082A
:1002A0007F0600087F0600087F0600087F0600081A
:1002B0007F0600087F0600087F0600087F0600080A
:1002C0007F0600087F0600087F0600087F060008FA
:1002D0007F0600087F0600087F0600087F060008EA
:1002E000000000000000000000000000000000000E
:1002F00000000000000000000000000000000000FE
:100300004ECF4EA5A6B6F72930820122300D060940
:100310002A864886F70D01010105000382010F00BE
:100320003082010A0282010100B52816DEA7C2311F
:10033000125CB5F35C604E9C8D8D3438D4922B7773
:10034000FFE586209B0F741736B673817AF6DCFBC7
:100350000B7132869D410D4758064D54C32BAF0992
:1003600059DDBEB13F7573FBD17619D5B577D48C05
:100370005B14676C354A4B22756C3B2BB93C1035CE
:100380001688E6CACF881190A3ADB3E9EC06D2C4B3
:1003900030F35BF9E8FD02DDB16FD794D95274E513
:1003A0007774E48441ED019FFB1E1F338BE4E1ED84
:1003B00004798E4438ACAAB91AB910247DDAEF0456
:1003C000195324A5D9513BC5128F4EE075C0775FF4
:1003D000FDF7CA6417303B724645775182CB6C3FBC
:1003E0002C14D3AC936EEFD808889F8F5249ADDDA3
:1003F0008B36C77867DE8B532F4A922812FD57C57C
:100400007347AB0B977E0B962AA30766DA77DB7DE3
:1004100087EC88937F4A7C5F107E27CF0B2702A74B
:10042000484CED0624765F37590203010001308203
:100430000122300D06092A864886F70D01010105C3
:10044000000382010F003082010A0282010100D8FC
:100450008B7DFB3A2AFD78E916573835E596296FEA
:10046000F75D408E2AC53E8FEF579E4BF770D078D0
:1004700094BAFE015297A45524F588DCE938D06C73
:1004800059EE57D0AD8867C2157A2B3E407B89D292
:10049000E5D621A7324EC099F0CF895293911FF92A
:1004A000009E6A499048BCAEE861CE32E13E1DF53F
:1004B00063B5D0934582ED3923D5536A3FC1AC155E
:1004C00096E09240BC54964152E49135F9DDE1B496
:1004D00078C4A8341DEBC308AC1CB3A00E9CE97112
:1004E0005F2BD63CA3025303953285BFFCF907DC92
:1004F0005B5226A675FD039A244B359019F4412AC8
:1005000000ABBB15F91A2D0AD678698D8BF7D43656
:1005100010B01C358DE43948968330F7EA6DF7A1A9
:1005200087A0512A89C36867B697672F7F34478BA6
:100530001EE61E896E0A5AC3F1494277C2F06C1A50
:10054000DD5CD1D32B5E9B7B3C92FA2DF7F96F02D9
:100550000301000130820122300D06092A864886F7
:10056000F70D01010105000382010F003082010A2D
:100570000282010100B52816DEA7C231125CB5F374
:100580005C604E9C8D8D3438D4922B77FFE58620AD
:100590009B0F741736B673817AF6DCFB0B713286CB
:1005A0009D410D4758064D54C32BAF0959DDBEB1CF
:1005B0003F7573FBD17619D5B577D48C5B14676C16
:1005C000354A4B22756C3B2BB93C10351688E6CA70
:1005D000CF881190A3ADB3E9EC06D2C430F35BF938
:1005E000E8FD02DDB16FD794D95274E57774E484E5
:1005F00041ED019FFB1E1F338BE4E1ED04798E4436
:1006000038ACAAB91AB910247DDAEF04195324A51D
:10061000D9513BC5128F4EE075C0775FFDF7CA64B4
:1006200017303B724645775182CB6C3F2C14D3ACCC
:10063000936EEFD808889F8F5249ADDD8B36C7780F
:1006400067DE8B532F4A922812FD57C57347AB0BB9
:10065000977E0B962AA30766DA77DB7D87EC889373
:100660007F4A7C5F107E27CF0B2702A7484CED0600
:1006700024765F37590203010001000002E000F018
:1006800000F8FEE772B6374880F30888364880F3F2
:10069000098836483649086040F20000CCF2000074
:1006A0004EF63471CEF200010860BFF34F8FBFF3F6
:1006B0006F8F40F20000C0F2F0004EF68851CEF28B
:1006C00000010860BFF34F8FBFF36F8F4FF0000042
:1006D000E1EE100A4EF63C71CEF2000108600620F1
:1006E00080F31488BFF36F8F10F0E0FF12F028F949
:1006F0004FF055301F491B4A91423CBF41F8040B53
:10070000FAE71D49184A91423CBF41F8040BFAE749
:100710001A491B4A1B4B9A423EBF51F8040B42F840
:10072000040BF8E700201849184A91423CBF41F8F1
:10073000040BFAE710F0F8FF12F086F9144C154D8F
:10074000AC4203DA54F8041B8847F9E70DF0BAFD10
:10075000114C124DAC4203DA54F8041B8847F9E7F8
:1007600010F0E0BF0006002000220020000000087A
:1007700008ED00E00000002000060020784201089B
:1007800000220020C8220020C8220020784A002031
:10079000E0020008E0020008E0020008E0020008B1
:1007A0002DE9F04F2DED108AC1F80CD0D0F80CD007
:1007B000BDEC108ABDE8F08F002383F31188284632
:1007C000A047002010F0C8F9FEE710F053F900DF51
:1007D000FEE700002DE9F04FD1B0031F00F11C042B
:1007E00007AA0793069453F8040F9C4242F8040F9B
:1007F000F9D10DF140080A1F20A8434652F8041F02
:1008000043F8041B9842F9D108F1C0044246966BA4
:10081000114652F8045F4FEAF643486A0F684FEA00
:10082000B54183EA76439442384481EAF51183EA7C
:10083000962381EAD50103440B44D363E7D1B64F35
:10084000DFF8E8C2DFF8E8E2DDF83C90DFF8E4B278
:100850000C9DCDE9047CB14FDFF8DCC2CDE9027E0E
:10086000AF4FDFF8D8E20197AE4FDDE90D64DDE967
:100870000832DDE90A01009713E05BF8207C00975D
:100880005BF8147C01975BF8107C02975BF80C7C9A
:1008900003975BF8087C5BE907EC04975BF8047C42
:1008A000059784EA060A0BF1200B08F120080AEAF2
:1008B000050A8AEA04074FEAF52A8AEAB51A8AEA9B
:1008C000756ABA4458F8207C574403EA020AB944CE
:1008D000009F4F4485EA06093944009758F81C7C6C
:1008E00009EA01093C4458F8187C89EA06093E44A3
:1008F000A1444FEAF12484EAB11484EA71644C44BF
:100900004FEAB309A64443EA020489EA7339044072
:10091000704489EAB35944EA0A04A144009CA14402
:1009200085EA010404406C4034444FEAF02686EA2C
:10093000B01686EA7066344449EA0306A4444FEAD6
:100940007934164002EB0C0784EAB90409EA030281
:1009500084EAB954324358F8146C14443544019E67
:10096000744481EA000E0EEA070E49EA040A4FEACF
:1009700074328EEA010E0AEA030A82EAB40275446E
:100980004FEAF72E82EAB4528EEAB71E8EEA776EED
:1009900075442E4409EA04054AEA0505334480EA11
:1009A000070AB6462A4458F8106C0AEA030A624459
:1009B00031448AEA000A44EA020C4FEA72358A445A
:1009C00004EA02010CEA090C85EAB2054CEA0101CD
:1009D00085EAB2550D444FEAF32181EAB31175441B
:1009E00081EA736102EA050C4FEA75368A4402997E
:1009F00086EAB5068A4442EA050186EAB5562140F0
:100A0000D14441EA0C0187EA030C31440CEA090C99
:100A100058F80C6C8CEA070C51443044039E05EAEC
:100A2000010E84444FEAF92080EAB91080EA796027
:100A3000604445EA010C30444FEA71360CEA020C7E
:100A400086EAB10604444CEA0E0C86EAB1566644C6
:100A500083EA090C304458F8086C0CEA040C37445B
:100A60004FEAF4268CEA030C01EA000E86EAB4167B
:100A7000674441EA000C86EA74660CEA050C3744C8
:100A8000049E4CEA0E0C3744D6194FEA703282EAC3
:100A9000B00282EAB052624489EA040C3A4458F83F
:100AA000047C0CEA060C3B444FEAF6278CEA090C5E
:100AB00000EA020E87EAB617634487EA76673B448A
:100AC000059F1F444FEA723383EAB2033D4483EA31
:100AD000B25C40EA02030B4043EA0E0363443B442A
:100AE000114F5F457FF4C9AE0B9109A9CDF83C9039
:100AF0000C95CDE90D64CDE90920DDE9064201E060
:100B000051F8043B52F8040F034494421360F7D1A8
:100B1000002051B0BDE8F08FA4823F925BC25639ED
:100B2000A5DBB5E9982F8A42F0320108D55E1CABEF
:100B3000F111F159F0310108CFFBC0B59144377183
:100B400008B3202238B50D46002104460EF0B2FA53
:100B50000E4A00200E4B0F49A066E566C4E900234B
:100B60000D4A0E4BC4E902230D4B0E4A236103F1DB
:100B70002D6303F51E3303F29A23C4E91800C4E978
:100B80000512E36138BD6FF0AC00704767E6096A93
:100B900085AE67BB8C68059B72F36E3C3AF54FA53A
:100BA0007F520E51ABD9831F00287BD041EA02034C
:100BB0002DE9F0470D468146164609B9002A6ED147
:100BC00013B90020BDE8F087D9F860003F286CD841
:100BD000D9F86430F318C9F8643031D209F120072C
:100BE000B8BB26F03F082E4409F15C04A844A6EBEC
:100BF000050A454517D040222946384615440EF0CF
:100C000033FA09F11C0353F8042F12BAA3421A60F5
:100C1000F9D139464846FFF7DDFD0028D2D14545D8
:100C2000A6EB050AE7D1BAF1000FCAD05246294611
:100C300038460EF019FA0020C9F860A0BDE8F08728
:100C4000D9F8683009F120070133C9F86830002865
:100C5000C7D0C0F1400429463844B44228BF3446C6
:100C60002246361B0EF000FAD9F8603025441C44A9
:100C7000402CC9F86040B4D109F11C0309F15C01B2
:100C800053F8042F12BA99421A60F9D139464846EE
:100C9000FFF7A0FD002895D1C9F86000A1E76FF02B
:100CA000AC008FE76FF0AC0070476FF0830089E70E
:100CB00000B5864689B0B0B10846A1B1AEF10402D4
:100CC000ADF1040C0EF11C0E52F8043F1BBA724534
:100CD0004CF8043FF8D1202269460EF0C5F90020F7
:100CE00009B05DF804FB6FF0AC00F9E72DE9F843BB
:100CF000002800F08B800E46B1FA81F14909002EE0
:100D000000F08480036E044600F120088022581C05
:100D1000206608F80320236E382B59D808EB03000F
:100D2000C3F1380204F11C0704F15C0500210EF048
:100D3000C1F93B46D4E91921500FD20000EBC101A3
:100D40006266A16653F8042F12BA9D421A60F9D167
:100D5000042204F1680104F158000EF085F9042220
:100D600004F1640128460EF07FF941462046FFF762
:100D700031FD814648BB231F53F8042F12BABB42F2
:100D80001A60F9D12022214630460EF06DF920225A
:100D9000002120460EF08EF900231E491E4AA3664C
:100DA000C4E90012C4E918331C4A1D4B1D49C4E9AB
:100DB000032303F12D631C4AA16003F51E331B4975
:100DC00003F29A23C4E90512E3614846BDE8F883BB
:100DD000C3F1400208EB03000EF06CF904F11C07AC
:100DE000402304F15C0523663B4653F8042F12BAF6
:100DF0009D421A60F9D141462046FFF7EBFC81463F
:100E00000028E2D12066382240468FE76FF0AC0917
:100E1000DBE700BF67E6096A85AE67BB3AF54FA519
:100E20007F520E5172F36E3CABD9831F8C68059BC9
:100E3000E0B12022002110B504460EF03BF90D4828
:100E400000230D4A0D492366A1600D496366C4E97C
:100E500000020C4A0C48E2600C4AC4E904020C4A45
:100E60001846C4E90612C4E91A3310BD6FF0AC008D
:100E7000704700BF67E6096A85AE67BB72F36E3CD8
:100E8000ABD9831F3AF54FA57F520E518C68059B55
:100E900019CDE05B704700BFA8B130B50C469FB0DC
:100EA00071B10DF10F050146702225F00F0528469E
:100EB0000EF0DAF821462846FFF718FF1FB030BDC4
:100EC0006FF0AC00FAE76FF0AC00704778B10B46FA
:100ED00010B5B1FA81F4640931B1014670221846A7
:100EE0000EF0C2F8204610BD6FF0AC0010BD6FF0E0
:100EF000AC0070472DE9F0418D1E4FF6FD74A54200
:100F000060D8B2FA82F56D09002A5BD0012B3CD083
:100F1000022954D0471E441C2E460F44A64614F8FE
:100F200001CF0CF1FF3C0EF1020EA7424FEAEC7C20
:100F3000AEEB000E1FFA8CFC2CEA050845EA0C0506
:100F400008EA0E0E46EA0E06E8D1C6F10A04891B2D
:100F50000644E40F013C64EA0505EDB244780078EC
:100F60001660621E0138E443D21AC00F2344D20F28
:100F70000138DB0F013A2843013B10431843C0F30B
:100F8000C01001380840BDE8F0810378EBB9437820
:100F9000012B1AD1022303E0045DABB2FF2C04D174
:100FA0008B4203F101051C46F6D30A2B0DD9C41858
:100FB00014F8010C48B9C81A1460BDE8F08106465F
:100FC000FF25CBE76FF0AC00DDE76FF0C800DAE794
:100FD000C0B110B500F58054D4F8440188B194F83C
:100FE00058314BB1D4F84831023B012B0BD910F0EA
:100FF00081FA002384F858310023C4F84431C4F83E
:10100000503110BD7047D4F85021002AEFD002446F
:1010100000210346013082421970FAD1D4F844010C
:101020000028E6D0E3E700BF2DE9F8430E469DF81F
:101030002010D8B3D6B31546C2B3B3FA83F252091F
:10104000A3B30746A3F10B00B04232D3A94601294E
:1010500003F1FF3809F8012B697020D0023BA91C6D
:1010600009989C1B22460BF00BFDB0B9012C08D946
:101070002B194A46012012F8011F01B910709A423B
:10108000F9D1A8EB060800243246394609EB0800DE
:1010900005F808400DF0E8FF2046BDE8F883033B63
:1010A000FF21A81C9A1B0EF005F8EAE76FF0AC00D0
:1010B000F3E76FF0C800F0E72DE9F04F2DED028B5C
:1010C000ADF6F42DDDF8244BDDF820AB0892002CB2
:1010D00000F06F810746002800F06B81002A18BFDE
:1010E00000290E461D4600F06481002D00F061814C
:1010F0002B68002B00F05D81BAF1FF3F00F05981B1
:10110000BAF1030F06D104F58053D3F84C31042B08
:1011100000F0018120460AF0ABFA8642804600F2D8
:10112000AB812368002B03DDA368DB0740F1A781B7
:1011300020460AF05DFBB0F5006F22D1BAF1010F35
:1011400079DCBAF1000F80F20D81AAF1020B0DF1EA
:10115000280948460AF066F9002840F0A780324680
:10116000394648460AF0A6FA002840F0E480BAF171
:10117000010F30DCBAF1000F80F2BC806FF0810605
:1011800096E0AAF1020B0DF1280948460AF04AF947
:10119000002840F08B80BBF1010FE0D80DF58F6384
:1011A0000DF5147A0246194608EE903A0346CDE949
:1011B000000050460AF090F9002840F0278132469E
:1011C000394648460AF076FA78B148466FF06E061E
:1011D0000AF064F978E0BBF1010F00F296800DF59A
:1011E0008F630DF5147A08EE903A204602F0C4FDA4
:1011F000DDF8282B0146504602F0D2FD06460028B5
:1012000000F0DA8048460AF049F916F16C0518EE4C
:10121000900A18BF01250AF041F9504605EAD67533
:101220000AF03CF9002D56D130460DF6F42DBDECF8
:10123000028BBDE8F08FAAF1020BBBF1010F86D83B
:10124000DDF8283B002B00F0B18004F5CF6948465B
:101250000AF0CEFAB0F5806F95D104F50A6318460E
:1012600009930AF0C5FAB0F5806F099B8BD10695FA
:1012700004F61875089A3146039504F54F650592F2
:101280003846029504F6C825009304F58A62019554
:101290004B46049402F0ACF810F16C05064618BFFA
:1012A000012505EAD075002DBED014E06FF06D0663
:1012B00048460AF0F3F8BBF1010F0CD80DF58F6327
:1012C0000DF5147A08EE903A18EE900A0AF0E6F856
:1012D00050460AF0E3F804F5805300222046C3F894
:1012E0004C21FFF775FE30460DF6F42DBDEC028B58
:1012F000BDE8F08F4B46224604F50A7148460AF0D5
:1013000055F9F0B16FF06F06D2E748466FF08106ED
:101310000AF0C4F8DFE70DF6C803184608EE103AE5
:101320000AF080F8002855D06FF06D0618EE100A0C
:101330000AF0C4F8D7E748466FF06E060AF0AEF838
:10134000C9E72B68984502D96FF08206B0E742469C
:1013500008994846C5F800800AF0AAF9B8B16FF0BC
:101360007006A5E7089A3146019538460092234653
:1013700004F50A7201F048FF10F16C05064618BF2B
:10138000012505EAD075002D3FF44EAFA3E748468E
:101390000AF084F8BBF1010F40F21A8100263046B2
:1013A0000DF6F42DBDEC028BBDE8F08F6FF0EB066F
:1013B00091E76FF0AC0696E718EE902A214650466A
:1013C0000AF0ECF800284CD06FF0760648460AF098
:1013D00065F879E73246394618EE100A0AF06AF9DC
:1013E00010B16FF06E06A1E7DDF82C3B8BBB18EE59
:1013F000102A012118EE100A0AF0FCFDB0B118EE17
:10140000100A6FF072060AF059F86CE748466FF060
:101410006D060AF053F848460AF040F818EE900AB4
:101420000AF03CF850460AF039F854E7214618EE25
:10143000100A0AF0BDF8013006D018EE100A6FF05D
:10144000FC060AF03BF84EE718EE100A0AF036F8F0
:1014500060E6012118EE100A0AF0F0F80128ECD13C
:10146000C5E75346224604F50A7150460AF09AF839
:1014700040B16FF06F06A9E76FF0AC062BE74FF0B5
:10148000FF3628E74B462246514648460AF074F894
:1014900010B16FF0740699E70DF5D46009F0C2FF42
:1014A00010B16FF06D06ADE60DF6C803184608EEF4
:1014B000103A09F0B7FF20B10DF5D46009F0EEFF46
:1014C000EFE704F5CF660DF5D46304F6C82148466E
:1014D00032460AF067F850B904F50A6718EE103A78
:1014E00004F54F6148463A460AF05CF850B16FF097
:1014F0006F060DF5D46009F0D1FF18EE100A09F05F
:10150000CDFF7FE64A4618EE101A0DF5D4600AF0BA
:101510002DF800283ED132464B4604F61871484655
:101520000AF02AF800284CD139464A4648460AF0C3
:101530001FF830B10DF5D4606FF0730609F0AEFFFF
:10154000DBE74A4618EE101A48460AF00DF830B1AB
:101550000DF5D4606FF0720609F0A0FFCDE70DF530
:10156000D463184609F09AFF18EE100A09F096FFA6
:101570004B46224618EE901A484609F0FDFF002817
:1015800087D12B6898450CD948466FF0820609F040
:1015900085FF99E60DF5D4606FF0710609F07EFFC6
:1015A000ABE7424608994846C5F800800AF080F843
:1015B00000283FF4ECAE48466FF0700609F06EFF6D
:1015C00082E60DF5D4606FF0740609F067FF94E7CA
:1015D0000DF58F60002609F061FF94A809F05EFF09
:1015E00081E600BF2DE9F047984686B000230F9EA4
:1015F0009DF844A00593002800F0C9800C460029FE
:1016000000F0C5801746002A00F0C180002E00F0CF
:10161000BE8006F58055D5F84C31062B05D8DFE89D
:1016200003F047040404102D58006FF0BF0400239A
:101630003046C5F84C31FFF7CBFC204606B0BDE87C
:10164000F087D5F84421139B21461046CDE901636C
:10165000109B0093129B013B18BF0123039341F29F
:1016600050133344FFF728FD041E02DA14F16C0F07
:10167000DDD10523002CC5F84C314DDB3046D5F8C3
:101680004441D5F850910AF0B3F8129B002B40F07A
:10169000818053462046494605AAFFF72BFC109B44
:1016A0000446012B18D1404516DD6FF08204BEE7D9
:1016B000D5F84431C5F85011002BB6D10E9A7AB343
:1016C0003A4685F85831C5F844710423C5F84C31C1
:1016D000B9E76FF08104AAE7002C1ADB0599C1B1C4
:1016E0000E9B7BB30E9B1960A8EB04086FF082037E
:1016F0004FEAD8785C4008F1FF3808EA040484EA2D
:101700000302E10F013A0139D20F013A0A431440B2
:101710005C400623C5F84C3114F16C0F87D18CE77F
:10172000814608460FF0AEFE0122C5F8440185F857
:10173000582100283CD0224649460DF095FCD5F8AA
:101740004421C2E7109B032B2DD1D5F85031D5F899
:101750004421002BC8D00E9B501A08F1FF3C1946BB
:1017600001E0D5F84421525CACEB030EFA540A18A0
:101770004FEADE7E0131D20F0EF1FF3E013A02EA5E
:101780000E029B1AD5F850219142EAD3ACE76FF0D4
:10179000AC0452E7109B012B02D118F1C90F84DB76
:1017A0006FF0C80443E7384622460DF05DFC9BE726
:1017B0006FF07C043BE700BF2DE9F04F85B00E9C35
:1017C0009DF840B0002863D00D46002960D0174630
:1017D000002A5DD0002C5BD099468246204609F055
:1017E00047FF4845064656DCA0F10B03F52B55D8BC
:1017F0009D4250D804F58058D8F84C31022B17D0B0
:101800003EDC012B41D801232046C8F84C3109F0B9
:10181000EFFF119B2946504601933A463346CDF8D7
:1018200000B0FFF701FC051E1DDB0223C8F84C3198
:10183000119A0123C8F850913146039341F2501395
:1018400038462344CDE901420F9A00923A46FFF709
:1018500033FC051E02DA15F16C0F07D10323002DAE
:10186000C8F84C310EDA15F16C0F05D00023204674
:10187000C8F84C31FFF7ACFB284605B0BDE8F08F47
:10188000032B02D1D8F85051EDE76FF0BF05EDE71B
:101890006FF0AC05F0E76FF08205EDE76FF0E9055A
:1018A000EAE700BF70B582B000283FD004460D467D
:1018B00041F25C1200210DF0FDFB04F50A760023D5
:1018C00004F580504FF0FF31C0F840511A46C0F87F
:1018D0004C3180F85831C0F84431C0E95433CDE977
:1018E0000033C0F848113146204609F0F5FD0546A1
:1018F00010B1284602B070BD04F6187104F54F62AD
:1019000004F6C82304F58A60CDE9002104F50A62D3
:1019100004F5CF6109F0E0FD05460028E9D0204636
:1019200009F0CCFD304609F0C9FDE2E76FF0AC05E7
:10193000DFE700BF6FF00102FFF7B4BF002841D01E
:1019400010B50446FFF744FB04F5805304F6187005
:10195000D3F84831012B1ED009F0B0FD04F54F60DB
:1019600009F0ACFD04F6C82009F0A8FD04F50A60F2
:1019700009F0A4FD04F5CF6009F0A0FD04F58A602C
:1019800009F09CFD04F50A7009F098FD204609F065
:1019900095FD002010BD09F081FD04F54F6009F0B0
:1019A0007DFD04F6C82009F079FD04F50A6009F010
:1019B00075FD04F5CF6009F071FD04F58A6009F04A
:1019C0006DFDDFE76FF0AC00704700BF70B4DDE97C
:1019D00004569DF80C401EB9039470BCFFF724BB5D
:1019E0006FF0C80070BC704710B4019C1CB95DF862
:1019F000044BFFF77FBA6FF0C8005DF8044B7047E7
:101A0000042805D0A0F10600B0FA80F04009704724
:101A10001A20704710B584B0069C0094079C01946E
:101A2000089C029401240394FFF746FB04B010BD08
:101A300010B584B04FF0020C069C0094079C0394F0
:101A40000024CDE9014CFFF7B7FE04B010BD00BF84
:101A500010B51C4686B04FF0000C0B46019404F5FF
:101A6000805400920246D4F8544105940224CDE9F2
:101A7000034C03240294FFF7B5FD06B010BD00BF70
:101A800010B586B04FF0020C089C019404F5805408
:101A9000D4F8544105940024049400940324CDE91F
:101AA000024CFFF79FFD06B010BD00BF10B51C46ED
:101AB00086B04FF0000C0B46019404F58054009260
:101AC0000246D4F8544105940124CDE9034C029414
:101AD000FFF788FD06B010BD10B586B0089C7CB13C
:101AE000019404F58054D4F85441059400240494DE
:101AF00000940124CDE90244FFF774FD06B010BD47
:101B00006FF0AC00FAE700BF30B587B00A9C84B133
:101B1000019404F580540B9D0495D4F85441059428
:101B20000124CDE9024400240094FFF75BFD07B0D7
:101B300030BD6FF0AC00FAE730B587B00A9C84B1D5
:101B4000019404F580540B9D0495D4F854410594F8
:101B50000124CDE9024400240094FFF743FD07B0BF
:101B600030BD6FF0AC00FAE710B584B04FF0010C57
:101B7000069C0094079C03940224CDE9014CFFF7D6
:101B80001BFE04B010BD00BF08B109F071BD6FF0BD
:101B9000AC0070472DE9F047DDF8208090B30E4689
:101BA00081B3002B18BF002A15461F462AD0B8F172
:101BB000000F27D000F50A7A0446504609F058FD78
:101BC0002B68814683421AD33146504609F06EFD98
:101BD00008B1BDE8F087C5F80090204609F048FD3F
:101BE000D8F800300546834209D33946204609F02B
:101BF0005DFD0028EDD1C8F80050BDE8F0876FF01A
:101C00008200E6E76FF0AC00E3E700BF00287CD07D
:101C1000F0B583B00091002973D00192002A70D0F2
:101C20001D46002B6DD0089B002B6AD0099B002B12
:101C300067D00A9B002B64D00B9B002B61D0DDE9A1
:101C40000C32002B18BF002A5BD00E9B002B58D003
:101C500000F50A770446384609F00AFD019A06465F
:101C600000991368984253D83846009209F01EFD37
:101C7000002848D1009A2046166009F0F9FC089B1C
:101C800006461B68984243D82946204609F00EFDB7
:101C9000002838D1089B04F58A671E60384609F091
:101CA000E7FC0A9B05461B68984231D809993846DB
:101CB00009F0FCFC38BB0A9B04F5CF661D6030467A
:101CC00009F0D6FC0C9B05461B68984220D80B995E
:101CD000304609F0EBFCB0B90C9B04F50A641D60BA
:101CE000204609F0C5FC0E9B05461B6898420FD89C
:101CF0000D99204609F0DAFC28B90E9B1D6003B04F
:101D0000F0BD6FF0AC0003B0F0BD6FF0AC007047F9
:101D10006FF08200F7E700BF48B1B1FA81F25209D3
:101D200029B100F580531046C3F8541170476FF085
:101D3000AC0070472DE9F04F002505601368AB42F9
:101D40005EDD9368934602F10C044FF0010C23F022
:101D500060434FF01D0E2E46036093685B0F436097
:101D600004E0236823FA0EF3C35104340135DBF891
:101D70000030CEF12009AB422EDD61452CDD236819
:101D80000CF1010850F82C204FEA8C0703FA09F3F4
:101D90008845AEF1030943EA020323F0604340F8AB
:101DA0002C3029DA0EF11A0E236807F1040ABEF16D
:101DB000200F23FA09F326D80CF1020C23F060431C
:101DC000614540F80A3019DDBEF1200F07F1080720
:101DD000C7D140F82C60C8E70CF1010C61450BDD60
:101DE0006FF040420023624400EB82000CF1010CD2
:101DF00040F8043F6145F9DCBDE8F08FC446B4E724
:101E00004FF0010CECE7C446CE4640F80A30ACE790
:101E1000034600F58E7CF0B5D3E9005202EB657203
:101E200043F8042F634553F8042C22F0604243F832
:101E3000042CF1D10025FE24082381F8FF502E4602
:101E4000026881F8FF2004F1010C8C4406E002686E
:101E50001A4108330CF8012DE4B174461C2B04F12F
:101E6000FF3EF4DDD3F1250C0E5514BF671C274649
:101E70000135472D0DDC50F8042F7C1E11F807E0CA
:101E8000CCF1080302FA0CF242EA0E02CA55002F06
:101E9000D9D1F0BDC3F1250C2746E9E72DE9F04F74
:101EA00085B0D1F81C314FF08D080390CDE90012B8
:101EB000D2F81C2100F50F7183FB02320291590FF9
:101EC00041EAC20123F06042C0F83C12B8F1470F6A
:101ED0003FDDC8F18E01A8F147030F2900F283808E
:101EE00047276FF04040009C0021181804EB87073B
:101EF000A8EB03030E4604EB8000019C04EB830374
:101F000050F8045F53F804498742C5FB0416F7D123
:101F1000480F029D740F40EAC6002B68801821F01C
:101F2000604244F10004410F20F0604041EAC401E6
:101F300045F8040C0B442B60029B08F1FF38043B6E
:101F4000B8F1FF3F0293C1D1039B1A6005B0BDE811
:101F5000F08FB8F10F0F43DDC24600231746002271
:101F600003F10F0C0AF1010E914616465345E34664
:101F700033DC9C4531DD6FF040450099A8EB03044C
:101F80005D1901EB8505019901EB840401E09C4595
:101F900008D0013354F8041955F8040F7345C0FBF9
:101FA0000126F4D130461146002622F06042490F46
:101FB0000CF10F0C41EAC001CF1949EB5079DA4519
:101FC000D4DA0298790F27F06047036841EAC90123
:101FD00040F8047C0B440360AEE711460020E6E7BE
:101FE000474600237DE74FF0470AB7E72DE9F04F5A
:101FF0008B4685B001460390DBF81C0180FB000294
:10200000430F4707C0F3D90043EAC2030A46C1F8A9
:102010003C32472102F50F73894602938D230193C9
:10202000A9EB01030D2B4CDC89451ADB019B6FF0FA
:1020300040420BEB89098A18591A00230BEB8202E4
:102040000BEB81061D4652F8044F56F804199145D2
:10205000C4FB0135F7D1DB186D41DB191F4640EB9E
:1020600005007B0F029C410743EAC003226841EA56
:10207000D70123F0604302EB90627F0721F07C40A0
:1020800044F8043C019B226003F1FF39002B69D026
:10209000019B19F0010F4FEA630104D15BF8213075
:1020A0000131C3FB0370029BB9F1460FA3F1040396
:1020B000CDE90193C8BF4FF04709A9EB01030D2BF0
:1020C000B2DD7A0F89454FEA507827F0604A42EA3C
:1020D000C00233DB01F10E0C09F1010E8945CDF888
:1020E00000C047DB8C4545DD019B6FF040475E1A21
:1020F000CF1900230BEB87070BEB86061D4601E08B
:102100008C4508D0013156F8040957F8044F714541
:10211000C4FB0035F4D1DB186D4113EB0A0345F124
:10212000000523F0604A5B0F0CF10E0C43EAC50377
:102130009A18009B48EB55789945CFDA029C530FCB
:1021400022F060424FEADA00216843EAC8034FEA0E
:102150004A7744F8042C1944019B216003F1FF39AC
:10216000002B95D17F0F039B47EAC0071F6005B086
:10217000BDE8F08F53460025D5E700BF2DE9F04FAD
:1021800085B0D1F88C304FF045080390CDE90012AE
:10219000D2F88C2000F58E7183FB02320291590F28
:1021A00041EAC20123F06042C0F81C11B8F1230FCC
:1021B0003FDDC8F14601A8F123030F2900F2838017
:1021C00023276FF04040009C0021181804EB87077C
:1021D000A8EB03030E4604EB8000019C04EB830391
:1021E00050F8045F53F804498742C5FB0416F7D141
:1021F000480F029D740F40EAC6002B68801821F03A
:10220000604244F10004410F20F0604041EAC40103
:1022100045F8040C0B442B60029B08F1FF38043B8B
:10222000B8F1FF3F0293C1D1039B1A6005B0BDE82E
:10223000F08FB8F10F0F43DDC2460023174600228E
:1022400003F10F0C0AF1010E914616465345E34681
:1022500033DC9C4531DD6FF040450099A8EB030469
:102260005D1901EB8505019901EB840401E09C45B2
:1022700008D0013354F8041955F8040F7345C0FB16
:102280000126F4D130461146002622F06042490F63
:102290000CF10F0C41EAC001CF1949EB5079DA4536
:1022A000D4DA0298790F27F06047036841EAC90140
:1022B00040F8047C0B440360AEE711460020E6E7DB
:1022C000474600237DE74FF0230AB7E72DE9F04F9B
:1022D0008B4685B001460390DBF88C0080FB000242
:1022E000430F4707C0F3D90043EAC2030A46C1F8C7
:1022F0001C31232102F58E738946029345230193F5
:10230000A9EB01030D2B4CDC89451ADB019B6FF017
:1023100040420BEB89098A18591A00230BEB820201
:102320000BEB81061D4652F8044F56F804199145EF
:10233000C4FB0135F7D1DB186D41DB191F4640EBBB
:1023400005007B0F029C410743EAC003226841EA73
:10235000D70123F0604302EB90627F0721F07C40BD
:1023600044F8043C019B226003F1FF39002B69D043
:10237000019B19F0010F4FEA630104D15BF8213092
:102380000131C3FB0370029BB9F1220FA3F10403D7
:10239000CDE90193C8BF4FF02309A9EB01030D2B31
:1023A000B2DD7A0F89454FEA507827F0604A42EA59
:1023B000C00233DB01F10E0C09F1010E8945CDF8A5
:1023C00000C047DB8C4545DD019B6FF040475E1A3E
:1023D000CF1900230BEB87070BEB86061D4601E0A8
:1023E0008C4508D0013156F8040957F8044F71455F
:1023F000C4FB0035F4D1DB186D4113EB0A0345F142
:10240000000523F0604A5B0F0CF10E0C43EAC50394
:102410009A18009B48EB55789945CFDA029C530FE8
:1024200022F060424FEADA00216843EAC8034FEA2B
:102430004A7744F8042C1944019B216003F1FF39C9
:10244000002B95D17F0F039B47EAC0071F6005B0A3
:10245000BDE8F08F53460025D5E700BF0023A1F16A
:10246000040C70B5051F01F58E769E465CF8044F8E
:102470007146B445C4FB023123F060444FEA537304
:102480004FEA617E43EAC10345F8044FEED1C0F83C
:10249000203170BDF0B54FF0000E0D1F00F18C071C
:1024A000011F764651F8043F55F8044F4FEAE37C8C
:1024B000C4FB023C13EB0E0346EB0C0C23F0604410
:1024C0004FEA537E8F424FEA6C760C604EEACC0E98
:1024D000E8D1D0F890307344C0F89030F0BD00BF20
:1024E0000023A1F1040C70B5051F01F18C069E4676
:1024F0005CF8044F7146B445C4FB023123F06044DC
:102500004FEA53734FEA617E43EAC10345F8044F33
:10251000EED1C0F8903070BDF0B54FF0000E0D1F39
:1025200000F58E77011F764651F8043F55F8044FA9
:102530004FEAE37CC4FB023C13EB0E0346EB0C0CAE
:1025400023F060444FEA537E8F424FEA6C760C6072
:102550004EEACC0EE8D1D0F820317344C0F82031D7
:10256000F0BD00BFF0B5002500F5907783B08D6019
:1025700050F8043B8B601D2305E0026801353241B1
:10258000CEF80C200430B84201EB850E03F11D0497
:10259000C3F1200610D0DEF808201F2C019202683B
:1025A00002FA03FC019AA3F1030342EA0C02CEF8FB
:1025B0000820E2DC2346E5E7402201F584703F2352
:1025C0000A6002E00B60013B04D350F8042D002A9E
:1025D000F8D04A6800204A6003B0F0BD10B5A0F101
:1025E000040C0A4601F58E7E136852F8044FDB1284
:1025F000964543EA844323F060434CF8043FF3D10B
:10260000D1F81C31DB12C0F81C3110BD00230A1FA9
:102610004FF4006C70B5051F01F50F769E4652F819
:10262000044F7146B242C4FB0C3123F060444FEAC0
:1026300053734FEA617E43EAC10345F8044FEED17C
:10264000C0F8403270BD00BF10B5A0F1040C0A46BE
:1026500001F18C0E136852F8044F1B15964543EA9E
:10266000442323F060434CF8043FF3D1D1F88C307D
:102670001B15C0F88C3010BD70B5012A4FF0000456
:10268000046038D401EB020EA44623460FE040F864
:1026900023400133ACF1150C472B2BDC9EF80020B6
:1026A000714542FA06F26A6016D050F823401EF8CF
:1026B000012DBCF1140F00EB8305CCF11D0602FACD
:1026C0000CF242EA040222F06044E0D871450CF1B9
:1026D000080C40F82320E8D10133472B0ADC6FF0C7
:1026E00040410022194400EB8100013340F8042FDF
:1026F000482BFAD170BD0123F1E700BF00B50438C3
:10270000043AA1F1040C01F18C0E5CF8043F52F87C
:10271000041FF445A3EB010340F8043FF5D15DF835
:1027200004FB00BF00B50438043AA1F1040C01F128
:102730008C0E5CF8043F52F8041FF4450B4440F83B
:10274000043FF6D15DF804FB00B50438043AA1F16A
:10275000040C01F58E7E5CF8043F52F8041FF4452A
:10276000A3EB010340F8043FF5D15DF804FB00BF83
:1027700000B50438043AA1F1040C01F58E7E5CF832
:10278000043F52F8041FF4450B4440F8043FF6D1CF
:102790005DF804FB2DE9F04FADF2944D04469146EF
:1027A0004FF40062DBA88EAEFFF758FE214601A869
:1027B0000DF58E78FFF72AFFDDF884A4DDE98E435E
:1027C0004FEA6A0503EB647324F060440135CDE9F8
:1027D0008E43DA171B215F0752073F1942EAD302E3
:1027E0004FEA577327F0604042EBE47443EAC403B6
:1027F000A5EB030C05EAEC724FEADC7C9B1AC0F3F4
:1028000000724FEA4C0C01394FEA400002EB4302E0
:10281000A5EB020302EBD3720CEBD37C05EAE37366
:10282000A2EB0303EBD14FEA4C03013383FB0A21F4
:10283000BA1A64EB0101520F42EAC102134483FB4E
:102840000A21A3EBA463BA1A64EB010403EBA463AB
:10285000A6F58C7483FB0A21BA1A911741F0010185
:10286000A1FB022092A8AAEB0202D20F01FB0233C5
:10287000DBA983FB0AC2B7EB0C0C27464FEAAC7E00
:102880004EF0010EAEFB0C2CAAEB0202D20F0EFB97
:102890000232FFF7E3FD024621462046FFF754FFD0
:1028A000D4E9001303EB617344F8043FA64254F8E3
:1028B000042C22F0604244F8042CF1D1716823F01A
:1028C00060421B2001EB637E53423260CEF1000474
:1028D000C6F804E04FEAE47C4FEA4C7C4CEAD40CA6
:1028E0006407E4184CEBE37C24F0604B620F42EA8F
:1028F000CC02A91A05EAE173C90FD21ACBF300730F
:10290000490001384FEA4B0B03EB4202A5EB0203EF
:1029100002EBD37201EBD37105EAE373A2EB03027E
:10292000ECD1490092A84A1CDBA982FB0A3BE31ABE
:102930006CEB0B0B5B0F43EACB031A44A2EBAC63CB
:1029400082FB0A2BA21A6CEB0B0203EBA26383FB44
:102950000A2CA21A4FEAA27C4CF0010CACFB022B11
:10296000AAEB0202D20F0CFB0233A3EB0E0E83FB89
:102970000A32E41AA21742F00102A2FB0443AAEBB6
:102980000404E40F02FB04E2FFF768FD0246394647
:102990003846FFF7EDFEB045D6E9001221F060435E
:1029A00002EB6172C6E9003202D056F8044D10E71E
:1029B000DDE9462392A8DBA903EB627322F06042B3
:1029C00009F58C744692AAEB03024793D20FFFF7E6
:1029D00045FD01A902460846FFF7B6FE4FF4107206
:1029E00001A948460CF040FB4B464A46D2E900019B
:1029F00001EB607142F8041F944252F8041C21F06C
:102A0000604142F8041CF1D1D9F81871DBAA0DF22B
:102A10008C46A9F10405FF1752F8040B55F8041F62
:102A20003840964201442960F6D1D3E9001202EB06
:102A3000617243F8042F9C4253F8042C22F0604248
:102A400043F8042CF1D148464946FFF7C7FD00235F
:102A50001846C9F81C310DF2944DBDE8F08F00BF47
:102A60002DE9F04700F58E7706460D4691463B4628
:102A7000044600F50E7CD3E9000202EB607243F8D5
:102A8000042F634553F8041C21F0604143F8041CF3
:102A9000F1D106F58C7AB046D8F800204046294698
:102AA00002FB09F222F06042FFF736FD58F8042BD2
:102AB000D8F80030C24503EB6273C8F80030EBD1A0
:102AC000D6F8182129465046A6F1040802FB09F25F
:102AD00006F58A79C2F31102FFF71EFD4146D6E9D9
:102AE000462303EB627322F060424FEAE37E4FEA33
:102AF000CE2EC6E946234EEA535E9214DB029B18A3
:102B00004EF1000E23F060425B0F41F8042F43EAC0
:102B1000CE03D1F82001C2174FEAC02CD2021CEB21
:102B2000030342EA505242EBEE7E8945EAD100218E
:102B3000C6F818314FF48E7238460CF0BBFAD5F84F
:102B40001811D6F81831043DC9431944C917C943AF
:102B500055F8042F58F8043F0A404745A3EB0203F9
:102B6000C8F80030F4D1D4E9001303EB617344F8E2
:102B7000043FA74254F8043C23F0604344F8043C6B
:102B8000F1D1BDE8F08700BF30B5154683B00446EB
:102B90000193FFF72BFA019A2946204603B0BDE8BE
:102BA00030405DE770B5049E04461D46FFF776F998
:102BB000324620462946BDE8704051E72DE9F047EE
:102BC00000F1900706460D4692463B46044600F546
:102BD0008E7CD3E9000202EB607243F8042F634558
:102BE00053F8042C22F0604243F8042CF1D106F192
:102BF0008C08B146D9F800204846294602FB0AF263
:102C000022F06042FFF746FC59F8042BD9F8003057
:102C1000C84503EB6273C9F80030EBD1D6F88C20BD
:102C200029464046A6F1040902FB0AF2C2F3080253
:102C3000FFF730FC06F1880ED6E9233202EB63720F
:102C400023F060434FEAE27C59124FEA0C5CC6E97C
:102C5000233213054CEA123C5B1849464CF1000C38
:102C600023F060425B0F41F8042F43EACC03D1F814
:102C70009400C2174FEA005A12051AEB030342EA06
:102C8000103242EBEC7C8E45EAD10021C6F88C3044
:102C9000384690220CF00EFAD5F88C10D6F88C300D
:102CA000043DC9431944C917C94355F8042F59F8BD
:102CB000043F0A40C845A3EB0203C9F80030F4D131
:102CC000D4E9001303EB617344F8043FA04554F8C2
:102CD000043C23F0604344F8043CF1D1BDE8F087A4
:102CE00070B5049E04461D46FFF748FA324620465A
:102CF0002946BDE8704061E730B5154683B004460B
:102D00000193FFF7E3FA019A2946204603B0BDE894
:102D1000304053E72DE9F04FADF5157D0446904660
:102D20004FF480126FA848ADFFF7DAFB214601A8E7
:102D300024AFFFF793FBDDF84892DDE948234FEA23
:102D4000690403EB627322F060420134CDE9482349
:102D50004FEAE37C1B215E074FEA4C7CB6184CEA35
:102D6000D30C4FEA567326F060404CEBE27C43EA0A
:102D7000CC03A4EB030E04EAEE724FEADE7E9B1A4C
:102D8000C0F300724FEA4E0E01394FEA400002EBE9
:102D90004302A4EB020302EBD3720EEBD37E04EAF0
:102DA000E373A2EB0303EBD14FEA4E0EA5F18C0ABD
:102DB0000EF1010282FB0931F31A6CEB01015B0F8A
:102DC00043EAC1031A4482FB0931A2EBAC62F31A55
:102DD0006CEB010C02EBAC6282FB0931F31A991720
:102DE00041F00101A1FB03304AA8A9EB0303DB0F6B
:102DF00001FB03226FA982FB093CF31A56464FEAF6
:102E0000A37C4CF0010CACFB033EA9EB0303DB0FEE
:102E10000CFB0322FFF764FB024651465046FFF7C6
:102E20006DFCDAE9001303EB61734AF8043F554582
:102E30005AF8042C22F060424AF8042CF1D16E9921
:102E40004FF01B0A6868A1EB000CA0EB010EACEB85
:102E5000637C0EEB637E23F060434FEAEC72520713
:102E6000C5E9003E42EADC025B424FEA4C7C1CEBC7
:102E7000030C42EBE3722CF0604B4FEA5C7141EAC9
:102E8000C201601A04EAE073C00FC91ACBF30073E1
:102E90004000BAF1010A4FEA4B0B03EB4101A4EBEE
:102EA000010301EBD37100EBD37004EAE373A1EBF0
:102EB0000301EBD140006FA9431C4AA883FB09AB77
:102EC000BCEB0A0A62EB0B0B4FEA5A7A4AEACB0ACE
:102ED0005344A3EBA26A83FB093BBCEB030362EB05
:102EE0000B020AEBA26282FB093ABCEB03034FEA36
:102EF000A37A4AF0010AAAFB033BA9EB0303DB0F09
:102F00000AFB0322A2EB0E0E82FB0923BCEB020C90
:102F10004FEAAC7242F00102A2FB0C3CA9EB0303A6
:102F2000DB0F02FB03E2FFF7DBFA024631463046D5
:102F3000FFF7F8FBAF42D5E9001221F0604302EB46
:102F40006172C5E9003202D055F8042D00E7DDE9D1
:102F500023234AA86FA903EB627322F0604208F1B1
:102F60008C042392A9EB03022493D20FFFF7B8FA43
:102F700001A902460846FFF7C1FB4FF4907201A970
:102F800040460CF071F843464246D2E9005101EB4D
:102F9000657142F8041F944252F8041C21F060410C
:102FA00042F8041CF1D1D8F88C706FAA93AEA8F146
:102FB0000405FF1752F8040B55F8041F38409642D9
:102FC00001442960F6D1D3E9000202EB607243F8B4
:102FD000042F9C4253F8042C22F0604243F8042C46
:102FE000F1D140464146FFF72FFB00200DF5157D3E
:102FF000BDE8F08F2DE9F04FADF5637DCDE90420FC
:103000000022EC9CCDE907220992002B00F0B3804E
:103010000E461D460DF11C090DF562780AAF3846C3
:1030200049F8047B07F590774FF4907200210CF07B
:1030300041F8B845F3D127686FF0604209AB2CA97D
:10304000B81C400000F00800384400FB07FCCCF13D
:10305000020C0CFB00F000FB07FCCCF1020C0CFB9B
:1030600000F000FB07F9C9F1020909FB00F909EAC0
:103070000209C9F10050039043F8042F9942FBD193
:103080000AA940F2FF13224608462D93FFF736FBAC
:103090000A9B01330A93ED9B002B73D1DDF820B01E
:1030A0003146902258460BF0DFFF0AAA594658468F
:1030B000FFF764F85A4621465846FFF72BFE824632
:1030C00000285AD14E4B079E83FB05235A19EB1754
:1030D000C3EB2213049AC3EBC30A52F8232003F173
:1030E000FF3903EB8A0AA5EB0A0ACAF11D0302FAAB
:1030F00003F8334646469846BAF1000F38D1B9F185
:10310000FF3F4AD0049B4FF01C0A53F8296009F195
:10311000FF39C6F30077039907A8234687F0010516
:1031200000915A46414650F825007600FFF7D8FD39
:10313000344A52F8273052F825504FF490720BEA77
:103140000303099F08EA050538461D4429460BF08C
:103150008BFF224639463846039BFFF7CDFD4FF4DF
:103160009072394628460BF07FFFBAF1000FC6D0A7
:103170000AF1FF3ACDE74FF0FF3A50460DF5637D77
:10318000BDE8F08FDDF820B0304621465A46FFF703
:10319000C1FD8246002888D0EFE7039A21464046C9
:1031A0004646FFF70BFD08F1900104F190005246EE
:1031B0008C4650F8045D51F8043D57425B1B8E422B
:1031C00023EA277342EA0302F2D16546D217043C90
:1031D000331F8835D24354F8040F53F8041F1040AE
:1031E0009D42A1EB00011960F5D14FF49072314678
:1031F00005980BF039FF50460DF5637DBDE8F08F63
:1032000009CB3D8DD03201082DE9F047ADF5B56D04
:10321000DDF8CC653468FF2C06D86FF070052846C1
:103220000DF5B56DBDE8F087814610468846174616
:103230001D4608F0DDFA1D2808DCB8F5807F05D8AA
:10324000284608F0D5FAB0F5006F06D06FF06E058D
:1032500028460DF5B56DBDE8F0872B68002B05DD20
:10326000AB68D90702D44FF0FF35D8E7424649464C
:1032700002A8FFF701FAD7F80880B8F1000F06D1CD
:103280006FF06F0528460DF5B56DBDE8F0872A464D
:1032900048210DF5916091ACFEF74CFDDDF8887486
:1032A0006FF06041D7A8BB1C22465B0003F0080307
:1032B0003B4403FB07F5C5F1020505FB03F303FBE4
:1032C00007F5C5F1020505FB03F303FB07F7C7F19B
:1032D000020703FB07F70F40C7F1005742F8041F2E
:1032E0009042FBD1002392A9404A0846CDE9D82359
:1032F0000DF59162FFF728FA929B02A992AA013379
:1033000008469293FEF7CAFD02AA0DF59161104698
:10331000FFF740FA0546002881D14FF01C0902E072
:10332000B9F101095BD358FA09F3F9D04FF41072DF
:1033300002A992A809F1FF3A0BF096FEB9F1000F2D
:1033400003D11BE0BAF1FF3F18D092A93B460DF51F
:1033500091620846FFF718FC48FA0AF30AF1FF3AAF
:1033600013F0010FEED092A90DF5916302AA009718
:103370000846FFF717FCBAF1FF3FE6D13A460DF5D4
:10338000916192A8FFF76CFBDAA90DF5127C00227F
:1033900051F8043D5042D1F840728C45A3EB07032D
:1033A00023EA207342EA0302F2D1D317D9A8DB4300
:1033B000D4F84412043422681940A042A2EB01025E
:1033C0002260F5D192A8DDF8C815FEF721FD4FF473
:1033D0008073284633600DF5B56DBDE8F0874FF476
:1033E000107202A992A80BF03FFEC7E7FFFF03008F
:1033F0002DE9F047ADF5916DDDF8C0643468FF2C20
:1034000007D9B1F5807F0F4613D96FF06E0702AD73
:1034100002E06FF0700702AD00222B4601351A70F2
:103420000DF591639D42F8D138460DF5916DBDE8DB
:10343000F0878146DDF8B804984608F0D9F9B0F570
:10344000006FE2D1DDF8B8341B68002B04DDDDF835
:10345000B8349B68D90711D5D8F80030002B03DDAC
:10346000D8F80830DA0709D5DDF8A8341B68002B36
:1034700008DDDDF8A8349B68DB0703D44FF0FF3785
:1034800002ADC9E702AD3A46494601242846FFF796
:10349000F3F8242142464AA8FEF74CFCDDF8AC24A0
:1034A0006EA8FEF747FC4AAB6EAA2946009392A885
:1034B0004FF480630194FFF79DFD07460028ABD1D0
:1034C0002421DDF8A8244AA8FEF734FCDDF8B02456
:1034D0006EA8FEF72FFC4AAB6EAA29460093DAA825
:1034E0004FF480630194FFF785FD0746002893D1D0
:1034F000424624214AA82C46FEF71CFC92A9DAAACF
:103500000846FFF7FBF892AB0DF5357E1A46D2E977
:10351000007101EB677142F8041F964552F8041CD4
:1035200021F0604142F8041CF1D1D5F8CC220DF510
:10353000927C91A805F5D6774FEAE27AE14680467B
:1035400059F8041F58F8042F0AEA0101B9450A4442
:10355000C8F80020F4D1D5F8CC224FEAE2785CF824
:10356000041F50F8042F08EA0101BC450A44026018
:10357000F5D1D3E9000202EB607243F8042F9E45B7
:1035800053F8042C22F0604243F8042CF1D1DDF80A
:10359000B42424216EA8FEF7CDFB92A96EAA08469A
:1035A000FEF7ECFD92AA4AA91046FFF7B3FB0746C7
:1035B00000287FF431AFDDF8A82424214AA8FEF7C3
:1035C000B9FB92AA4AA91046FEF7D8FD284692AA4E
:1035D000DAA9FFF7CDF849A8D4E9001303EB61732A
:1035E00044F8043FA04254F8043C23F0604344F8FC
:1035F000043CF1D1DDF8BC142846FEF709FC4FF479
:103600008073336008E700BF2DE9F04F0446ADF644
:10361000643D08460D4690461E4608F0E9F8074608
:10362000204608F0E5F8B0F5006F02DCB7F5006F52
:1036300005DD6FF06E000DF6643DBDE8F08F40468D
:1036400008F0D6F8B0F5006FF3D1D8F80030002BB1
:1036500006DDD8F80830DB0702D44FF0FF30EAE788
:103660004821224608A8E0ACFEF764FB2A4698A849
:10367000FEF760FB42462046FEF75CFB284608F05A
:10368000B7F8002305460793CDE90533002800F07D
:10369000FF800DF114080DF536690DF59467384675
:1036A00048F8047B07F510774FF4107200210BF0F7
:1036B00001FD4F45F3D1E09F6FF060420DF2B45130
:1036C0000DF29C43B81C400000F00800384400FB99
:1036D00007FCCCF1020C0CFB00F000FB07FCCCF16A
:1036E000020C0CFB00F000FB07F7C7F1020707FB19
:1036F00000F01040C0F10050029043F8042F9942AE
:10370000FBD1654B0DF594612246CDF8B835002309
:103710000846CDF8BC35FFF717F8DDF8A0344FF4B4
:10372000907208A90133CDF8A034069B1F461846B5
:103730000BF09AFC0DF5946239463846FEF7AEFB65
:103740003A4621463846FFF725F8002840F0958094
:10375000524BDDF814A083FB052303965A19EB178F
:10376000C3EB2213C3EBC30203F1FF3B03EB820263
:10377000AD1A0DF5366202EB8302A846A2F510637E
:103780001A68C5F11D0302FA03F94D46B94635E042
:10379000BBF1FF3FA3F510630BF1FF3B38D01D6871
:1037A0004FF01C08C5F30077029B05A84A4687F036
:1037B000010600935146234650F826006D00FFF79E
:1037C000F1F9374A52F8273052F826604FF4107258
:1037D00009EA0303079F0AEA060638461E443146F3
:1037E0000BF042FC224639463846029BFFF7CCF9E3
:1037F000394630464FF410720BF036FC0DF5366347
:1038000003EB8B03B8F1000FC2D008F1FF38C9E712
:10381000DDE9022621465046FFF722F945460DF222
:103820009C420AF59071DFAF52F8040951F8043D4B
:103830009742A3EB0003C5F1000023EA207345EA99
:103840000305F1D1EB172046AAF104050DF59467A5
:10385000DB4350F8041B55F8042F19408742A2EBB4
:1038600001022A60F5D151464FF4107208A80BF0FE
:10387000FBFB314608A8FEF775FE98AB00211A46FF
:103880000133A3421170FAD10DF6643DBDE8F08F0B
:103890004FF0FF30F1E700BFFFFF030009CB3D8D84
:1038A000D03201082DE9F0410546ADF5127D0846FC
:1038B0000C4690461F4607F09BFF0646284607F039
:1038C00097FFB0F5806F02DCB6F5806F05DD6FF015
:1038D0006E000DF5127DBDE8F081404607F088FFCF
:1038E000B0F5806FF3D1D8F80030002B06DDD8F8A2
:1038F0000830DB0702D44FF0FF30EAE724212A46E4
:1039000002A86EADFEF716FA22464AA8FEF712FA92
:1039100042462846FEF70EFA204607F069FF0021CE
:1039200003464AAA019102A900950846FFF762FBE7
:1039300040B90146902226A80BF0BCFB394602A8EC
:10394000FEF710FE4AAB4FF0000C1A46013382F826
:1039500000C092AA9342F8D10DF5127DBDE8F08126
:10396000012809D0831E012B09D841F25B139A422A
:1039700005D90846FEF708B96FF0E60070476FF00A
:10398000AC0070472DE9F046ADF5037D1E46DDE93C
:103990008B598D9BDAB3D6B317468A9ABAB3B5B3AF
:1039A000B9F1000F33D093B3012982460C4628D0D9
:1039B0008A1E012A28D841F25B12934224D9484634
:1039C000FEF7E2F8854222DC504608F069FB002849
:1039D0000DDB012C0FD0023C012C18D8AE42324630
:1039E00038BF2A46B2F5007F17D96FF0E4000DF515
:1039F000037DBDE8F0866FF0E6000DF5037DBDE8C0
:103A0000F0866FF0E600DDE76FF0AC00DAE76FF00C
:103A1000AC000DF5037DBDE8F086002102A8019100
:103A20000BF048FB2A468A9902A80BF01DFB4B4677
:103A300001AA294602A8FEF739F810F16C0F00D14F
:103A4000FEE70028D1DB019B4BB18642CDD1024677
:103A5000394618460FF0F2FA0028C8D0C5E700280A
:103A6000C5D0C2E72DE9F04F9FB0DDE92969DDF847
:103A7000AC80002A5ED01F46002B5BD0289B002B19
:103A800058D0002E56D0B9F1000F53D0B8F1000F26
:103A900050D0012905460C46924645D08A1E012A7F
:103AA00045D841F25B12904541D94846FEF76CF883
:103AB00086423FDC284608F0F3FA002817DB032C87
:103AC000834617D051460DF1140A00903A46284615
:103AD000534608F0F9FB50B92146289C5B465246F4
:103AE000284601960094CDE90298FFF74BFF1FB0DE
:103AF000BDE8F08F51460DF1140A00903A46284671
:103B0000534608F0E1FB0028F1D1284608F0A4FA5A
:103B10000028ECDB03465A465146504601F09AFF16
:103B200000280ADD8346D7E76FF0E600C0E76FF0B4
:103B3000AC00BDE76FF0AC00D9E7D8D10BF1220B98
:103B4000CAE700BF2DE9F04F87B01E46149B0393D0
:103B5000159BDDE910A8DDE9129B0493002A3BD0F8
:103B6000002E39D0BAF1000F36D0B8F1000F33D0A3
:103B7000D8F8003083B3B9F1000F2DD0BBF1000F9E
:103B80002AD0012907460C46154643D08A1E012A31
:103B900043D841F25B1293453FD948460593FDF760
:103BA000F3FF059B834217DB384608F079FA0028BB
:103BB00014DB012C29D0A31E012B0DD8039B5246E8
:103BC00031462846CDE90093D8F80030FDF7CCFF08
:103BD00010F16C0F05D1FEE76FF0AC0007B0BDE847
:103BE000F08F0028FADB049BC8F80000C3B11190E5
:103BF00033462A4621463846CDF840A0CDE9129BEF
:103C000007B0BDE8F04FFFF7BDBE6FF0E60007B0AC
:103C1000BDE8F08F6FF0E600C4E76FF0AC00C1E7DD
:103C20000498DBE710B586B0089C0094099C0194C9
:103C30000A9C02940B9C03940C9C0494012405940C
:103C4000FFF780FF06B010BD2DE9F04FA1B0DDE910
:103C50002B682D9F002A75D09946002B72D02A9B85
:103C6000002B6FD0002E6DD0D6F800B0BBF1000F46
:103C700068D0B8F1000F65D0002F63D00129054648
:103C80000C46924658D08A1E012A58D841F25B123F
:103C9000974254D94046FDF777FF834552DB2846CB
:103CA00008F0FEF900282ADB032C83462AD051466F
:103CB0000DF11C0A00904A462846534608F004FBC2
:103CC000E8B92E9B524621462846CDE903732A9B2C
:103CD00000930123CDE9016805935B46FFF732FFAE
:103CE00068B92F9B5BB12A9B524621462846009318
:103CF000CDE90287336801935B46FFF743FE21B0AD
:103D0000BDE8F08F51460DF11C0A00904A46284646
:103D1000534608F0D9FA0028F1D1284608F09CF95A
:103D20000028ECDB03465A465146504601F092FE0D
:103D300000280ADD8346C4E76FF0E600ADE76FF0C8
:103D4000AC00AAE76FF0AC00D9E7D8D10BF1220B99
:103D5000B7E700BF10B586B0089C0094099C019499
:103D60000A9C02940B9C03940C9C049401240594DB
:103D7000FFF76AFF06B010BD00B10068704700BFD2
:103D800028B103688B4201DD002901DA0020704769
:103D9000023150F821007047042208F071BE00BFC4
:103DA00070B51AB30446E8B1E1B188291ADC0346BC
:103DB00015468A0043F8081B2846194608F060FE9D
:103DC000064688B9236804222846013304EB8301A0
:103DD00054F8233043B908F053FE0028F2D00646C9
:103DE000304670BD6FF0AC06304670BD6FF0EB062C
:103DF000304670BDF8B5069C002B49D0002C47DD3D
:103E000084460846002943D0002A41DD94420978BF
:103E10003EDCA1F12E05B5FA85F56D09C5BB0CF1A7
:103E2000FF36012E0AD9BCF1040F31D122461946C2
:103E30000FF004F9B0FA80F04009F8BDBCF1040FAE
:103E4000F4D0BCF1010F36D0BCF1020F22D01F78A4
:103E5000BC46314D00EB020E03E0002A29DD13F8C9
:103E600001CF10F8011B6A5C0C4602F00302012A24
:103E700015F80C2002F0030208BF01F1200461468E
:103E8000012AAEEB000208BF0CF120018C42E4D005
:103E90000020F8BD93F800C0111B22460844D8E763
:103EA000013A2E2F06F10200A2EB0102F4D0002A03
:103EB000CEDC0120F8BD93F800C0BCF12E0F6746A0
:103EC00021D0BCF1400FC3D09E46002501E0AC429A
:103ED00006DD1EF8016F0135402EF8D1AC42B7DC8B
:103EE000402915D00546002101E08C4208DD2E4610
:103EF00015F801EF0131BEF1400FF6D18C42CFDC55
:103F00002E2FC9D0A4E74029ECD10130013AC3E7F4
:103F10000130013ACBE700BF6D410108D9B1F0B5DE
:103F2000074683B00C46154601E0246884B1237B24
:103F3000AB42FAD1A668BA68B242F6DB636828469B
:103F4000F9680096FFF756FF0028EED0012000E048
:103F5000002003B0F0BD0020704700BF09B3F0B5EA
:103F6000074683B00C461546002001E0246854B192
:103F7000237BAB42FAD1BA68A668B24207DA24685A
:103F80000120002CF4D180F0010003B0F0BD636883
:103F90002846F9680096FFF72DFF0028EFD0012092
:103FA000F3E70120704700BF38B51D465BB10C46F2
:103FB0000A4619460FF096F828460BF073F8A0420F
:103FC00028BF204638BD184638BD00BF030E0BD1B0
:103FD000030C21D1030A21D110BB19B18023012088
:103FE0000B70704701207047042210B5D4B2C9B9D4
:103FF000013A01F1020E04F1FF3C4B1CD2005EFAC3
:104000008CFE20FA02FC083A09B183F800C00133A3
:104010007345F6D1601C10BD0322E6E70222E4E7F7
:104020000122E2E764F07F030B70E1E77F2803469B
:1040300002D801200B707047020E00B51ED1000C93
:1040400020D11A0A14BF0222012262F07F020A70F4
:10405000D0B91A0A0CBF0120022000F1FF3C01EB8D
:10406000000E4FEACC0C23FA0CF2ACF1080C01F86C
:10407000012F8E45F7D101305DF804FB8422042026
:104080000A70EAE70322E0E70320E6E72DE9F041C2
:10409000D1F80080002608F1010516609D4212D873
:1040A00010F9084000EB080E10F808C0B4420DDB10
:1040B0006046069C24B90D6000B11060BDE8F08137
:1040C00044199C42F7D96FF08300F7E7BCF1800FE9
:1040D0000CF07F0407D0012C1FD0042C1AD8661EC8
:1040E000F7000126BE402F199F42ECD8671E26EA32
:1040F000E676CCB108F10205441CF44600204444A5
:104100003C441CF801EFA4454EEA0020F9D13D449F
:10411000B042CEDA6FF08B00D0E708F10205AB4277
:10412000D1D337468026E7E72046F1E710B50124D2
:1041300082B00094FFF7AAFF02B010BD2DE9F04352
:1041400085B01F46DDE90C8388B3D1F800C0164660
:104150000C460CF101029A422CD810F80C9005463E
:104160000A60A9F11702012A1ED80122009203AAAF
:10417000FFF78CFF002823DB039AA2F10C03142B1A
:104180001BD80FB187F8009016B120680544356040
:10419000B8F1000F01D0C8F80020236800201344B4
:1041A000236005B0BDE8F0836FF09800F9E76FF089
:1041B000AC00F6E76FF08300F3E76FF09400F0E7F0
:1041C0006FF08B00EDE700BF70B51D4684B0002393
:1041D0000393136840B11446089E5A1C964203D3B9
:1041E000C35C0292994203D06FF08B0004B070BDA3
:1041F0000999334603AA009102A9FFF747FF002857
:10420000F2DBDDE902302860236004B070BD00BF3E
:10421000F0B50D4685B000210391296840B14F1CCF
:104220001646BB4204D3425C04460297022A03D0DE
:104230006FF08B0005B0F0BD012202A9009203AA25
:10424000FFF724FF0028F3DBDDE9023000283060AF
:104250002B60EFDB3268012A0EDDE25CFF2A0ED014
:1042600052B901332B603368013B002B336003DD0F
:104270002B68E356002BDBDA002005B0F0BD2344A9
:1042800093F90130002BF7DAD2E700BF002818BFFE
:1042900000290FD0B2FA82FC4FEA5C1C52B130B454
:1042A0000D686C1C9C4208D8435D604613700C601E
:1042B00030BC70476FF0AC0070476FF08300F7E7D9
:1042C00070B5154684B000220C4603920A6830B1DE
:1042D000561CB34203D3825C0296302A03D06FF09F
:1042E0008B0004B070BD012202A9009203AAFFF75F
:1042F000CDFE0028F3DBDDE902302860236004B046
:1043000070BD00BF70B5154684B000220C46039204
:104310000A6830B1561CB34203D3825C0296302A3D
:1043200003D06FF08B0004B070BD089903AA009110
:1043300002A9FFF7ABFE0028F3DBDDE902302860BD
:10434000236004B070BD00BF70B5154684B0002274
:104350000C4603920A6830B1561CB34203D3825C08
:104360000296312A03D06FF08B0004B070BD012299
:1043700002A9009203AAFFF789FE0028F3DBDDE91A
:1043800002302860236004B070BD00BF70B51546D0
:1043900084B000220C4603920A6830B1561CB34226
:1043A00003D3825C0296312A03D06FF08B0004B0F5
:1043B00070BD089903AA009102A9FFF767FE0028C3
:1043C000F3DBDDE902302860236004B070BD00BF7C
:1043D00070B5154684B000220C4603920A6830B1CD
:1043E000561CB34203D3825C0296042A03D06FF0BA
:1043F0008B0004B070BD012202A9009203AAFFF74E
:1044000045FE0028F3DBDDE902302860236004B0BC
:1044100070BD00BF40F289230246984208D0054B88
:1044200040F28F2103F120008A4218BF18467047DE
:1044300001487047E0320108E832010810B5034630
:1044400014469AB14FF0020C090682F800C004D459
:104450007F2814D86070022010BD01337F2B13D841
:1044600003206370002304F80C3010BD0A0613D437
:104470007F2BF0D92146FFF7A9FD013010BD511C5B
:10448000FFF7A4FD013010BD511C1846FFF79EFD3B
:1044900000F1010C0230E5E701307F2801D803204C
:1044A00010BD2146FFF792FD023010BD30B40C68FC
:1044B000E51C9D4212D888B104F1010C63450DD36F
:1044C000035D022B0AD110F80C300234012B09D104
:1044D000035D13600D60106830BC70476FF08B0097
:1044E00030BC70476FF08C00F6E700BF70B50C462B
:1044F00082B015461268064669460092204601AA17
:10450000FFF786FE08B102B070BD304606F08AFFA4
:1045100060B93046DDE90012214407F0CBF840B91C
:10452000DDE9003213442B6002B070BD6FF06D0006
:10453000E9E7304606F0C2FF6FF08D00E3E700BF09
:104540002DE9F04184B00B9D00283BD090460A68CD
:104550000F461E46511C8B4234D3825C04460291A6
:10456000032A2FD1012202A9009203AAFFF78EFD90
:10457000002830DB039B002B30DD0298411CB14248
:104580002CD80A9E225CC6B9072A24D842B11C4402
:10459000044414F8010CC2F10804A040C0B2D0B920
:1045A0003960B8F1000F02D0013BC8F8003075B196
:1045B00000202A7004B0BDE8F081002AF0D06FF02E
:1045C0009100F7E76FF0920004B0BDE8F081284653
:1045D00004B0BDE8F0816FF08B00EBE76FF0830073
:1045E000E8E700BF002313600E2910D8DFE801F0D0
:1045F0001B25320F0F0F3A98A2A9B0CE0F08110059
:10460000BD2800F01681B0F5E87F00F0CE800020D4
:1046100070470D2803D040F295239842F7D1092323
:104620008E4813607047582800F00B81B0F5CF7F9B
:10463000EDD109238A481360704740F289239842DC
:1046400000F0FB8040F28F239842E0D10923854897
:104650001360704740F285239842D8D109238248DD
:1046600013607047452800F0F48080382828CED8A1
:104670002828CCD801A353F820F000BF2B4800080D
:10468000234800080F4600081B4800080F46000892
:10469000134800080F4600080F4600080F460008A0
:1046A0000F4600080F4600080F4600080F46000896
:1046B0000F4600080F4600080F4600080B48000888
:1046C00003480008FB4700080F4600080F46000893
:1046D000F34700080F460008EB4700080F460008A4
:1046E0000F4600080F4600080F4600080F46000856
:1046F0000F4600080F4600080F4600080F46000846
:104700000F4600080F4600080F4600080F46000835
:104710000F4600080F4600080F460008E347000850
:10472000742800F0928075287FF471AF08234F48F9
:104730001360704792287FF46AAF04234C481360DB
:1047400070474F287FF463AF08234A4813607047CF
:104750004F2823D846287FF65AAF473808283FF617
:1047600056AF01A353F820F0BB470008B347000839
:10477000DB470008D34700080F4600080F46000833
:104780000F460008CB470008C3470008B0F5257F57
:104790007FF43DAF092338481360704797287FF4B2
:1047A00036AF04233548136070470923344813603B
:1047B000704708233348136070470823324813605A
:1047C000704708233148136070470823304813604E
:1047D000704708232F481360704708232E48136042
:1047E000704703232D481360704703232C48136040
:1047F000704703232B481360704703232A48136034
:104800007047032329481360704703232848136027
:10481000704703232748136070470323264813601B
:10482000704703232548136070470323244813600F
:1048300070470623234813607047092322481360FA
:1048400070470523214813607047082320481360F0
:10485000704708231F481360704700BF803301086A
:104860001833010824330108B43301084C3301081C
:10487000F83301085C3301086C33010894330108F4
:1048800038330108783301086433010854330108D0
:10489000F033010830330108AC330108CC33010890
:1048A000C8330108DC330108D43301084833010858
:1048B000C4330108C033010844330108D033010870
:1048C000D83301088C330108A0330108983301085C
:1048D000E8330108E033010870B5154684B00022C2
:1048E0000C4603920A6830B1561CB34203D3825C73
:1048F0000296062A03D06FF08B0004B070BD01222F
:1049000002A9009203AAFFF7C1FB0028F3DBDDE94F
:10491000022303EAE3702B60226004B070BD00BF85
:1049200008B5034661B106227F280A7005D9013116
:104930001846FFF74BFB013008BD02204B7008BD45
:104940007F28F5D8022008BD2DE9F04784B09846AD
:104950000E4615460C9B0A46062107460093012386
:10496000019302ABFFF730FC002818DB0024DDF8D0
:104970000890D6F800A02C60B9F1000F27D009EB01
:104980000A0107EB0A0C7A181CF8013B1C449445F9
:104990002C60F9D1B8F1150F316003D1002004B0BB
:1049A000BDE8F0874146286803AAFFF71BFE0146D1
:1049B0000028F3D0039B994506D14A4607EB0A002D
:1049C0000EF03CFB0028E9D06FF09300E7E751467A
:1049D000E0E700BF2DE9F04100F51E7784B04FF00D
:1049E0000108044600921546CDF8048003AB0E463C
:1049F0003A463021D0F87402FFF7E6FB002823DBAB
:104A00000095324643463946039DD4E99D06FFF79B
:104A10009BFF002835441CDBD4F87832AB420DD024
:104A2000EA1A022A10D1D4F874226AB1591C8D42B4
:104A30000AD3D35CC4F87812052B05D10020C4F842
:104A4000785204B0BDE8F0816FF08B0004B0BDE88F
:104A5000F0816FF08F00F4E72DE9F04184B09846C3
:104A6000012315460A9F002201930E460097044633
:104A70000B6830212A6003AA039302ABFFF7A4FB63
:104A8000002823DB43462A4603A920460097FFF768
:104A90005BFF00281DDB039B3CB1BB4205D25A1CC7
:104AA000974202D3E15C052904D00020336004B0B2
:104AB000BDE8F08102339F4205D3A25C002AF4D006
:104AC0006FF09100F3E76FF08300F0E76FF08B0079
:104AD000EDE76FF08F00EAE7002856D02DE9F041AE
:104AE0000E4688B000294DD04FF0010800921F46B5
:104AF0001546CDF8048003AA0B68302104460393C1
:104B000005ABFFF761FB002837DB2B4604AA03A99E
:104B10002046FFF7CBFC00282FDB3A460223204635
:104B20000095FFF799FF002827DB0398431C9D425F
:104B300023D3215C062910D02046012405AB03AA0B
:104B4000042100950194FFF73FFB843015D0039BAF
:104B50000598336008B0BDE8F081069007AB06AA5F
:104B60002046CDF804800095FFF72EFB002804DBDB
:104B7000DDE9063213440393DEE76FF08B0008B0E3
:104B8000BDE8F0816FF0AC00E4E76FF0AC00704777
:104B90002DE9F0419846002386B09A4218BF98420A
:104BA000059370D00F4600296DD00446012605AB51
:104BB00015464246FFF790FF04AB3A4630212046A7
:104BC000CDE90086FFF700FB002859DB434603AA26
:104BD00039462046FFF76AFC002851DB05F5805373
:104BE0003A4621462846C3F848614346FFF77EFC13
:104BF000002842DB43463A46214605F50A70FFF796
:104C000075FC002839DB43463A46214605F58A60A3
:104C1000FFF76CFC002830DB43463A46214605F599
:104C2000CF60FFF763FC002827DB43463A46214666
:104C300005F50A60FFF75AFC00281EDB43463A469A
:104C4000214605F6C820FFF751FC002815DB434636
:104C50003A46214605F54F60FFF748FC00280CDB7B
:104C600043463A46214605F61870FFF73FFC0028F8
:104C700003DB002006B0BDE8F0816FF08E00F9E79D
:104C80006FF08B00F6E76FF0AC00F3E700B583B090
:104C900001ABFFF721FF03B05DF804FB70B5002402
:104CA00082B00194B8B113460E460A4601A90546E2
:104CB000FFF712FF041E08DB01996318B34207D8FF
:104CC0002246294428460EF0EBF9204602B070BD7A
:104CD0006FF08304F9E76FF0AC04F6E770B50023DA
:104CE00082B00193B8B10A460E466B4601A905464B
:104CF000FFF7F2FE041E08DB019963189E4207D3FA
:104D00002246294428460EF0CBF9204602B070BD59
:104D10006FF08304F9E76FF0AC04F6E758B151B1D6
:104D20000B68934207D800B583B001ABFFF7D4FE00
:104D300003B05DF804FB6FF0AC0070472DE9F04163
:104D40001F4686B000230393002800F094800C4691
:104D5000002900F090804FF001080092164603AB46
:104D60000A46CDF8048030210546FFF72DFA0028C9
:104D700075DB23685A1C964276D3EB5C022B39D044
:104D800003AB224630212846CDE90068FFF71CFA24
:104D9000002864DB04AA06212846CDE900682368C0
:104DA000049305ABFFF710FA002858DBDDE9042374
:104DB0001A449642226057D9531C9E424FD3A95C95
:104DC000052942D04FF001080022334621462846EB
:104DD000CDE90082FFF7B4FB10B106B0BDE8F08169
:104DE00003AB224630212846CDE90068FFF7ECF9F5
:104DF000002834DB334603AA21462846FFF708FA89
:104E000000283BDB0C9B03990BB10C9B19602368BA
:104E10000FB1EA183A60194403AA334628462160C4
:104E20002146FFF7F5F9002828DB0E9B039A0BB10A
:104E30000E9B1A600D9B83B123680D991D440D6074
:104E40001344236006B0BDE8F081023296420BD3D2
:104E5000EB5C73B16FF09100BFE72368F0E76FF090
:104E60008B0006B0BDE8F0816FF0830006B0BDE8AE
:104E7000F0812260A6E76FF0AC00AEE76FF08E0025
:104E8000ABE700BF2DE9F041069D002D18BF002AB9
:104E900026D00F46B0FA80F10446490900B398467F
:104EA00005F5805328461646C3F8481106F0BAFAAD
:104EB00098B93A462146284606F0FCFB98B905F514
:104EC0000A74204606F0AEFA98B9424631462046AA
:104ED00006F0F0FB98B9BDE8F0816FF06D00FAE7DD
:104EE0006FF0AC00F7E7284606F0E8FA6FF08D00A7
:104EF000F1E7284606F0E2FA6FF06D00EBE728468E
:104F000006F0DCFA204606F0D9FA6FF08D00E2E7F1
:104F100030B5002489B0CDE90444CDE90644B2B1EE
:104F200014461A4605AB07AD019306AB02950093F4
:104F300004ABFFF703FF08B109B030BD079B04982D
:104F40000094DDE90521FFF79DFF09B030BD6FF04A
:104F5000AC00F1E72DE9F043ADF50B5D0025064609
:104F6000894681B029461746984602A80195FCF764
:104F7000E1FC041E17DB41F2641029466844FCF78B
:104F8000D9FC041E0CDB4B46304602AA01A9FFF7F0
:104F9000FFFD044668B141F264106844FCF7CEFCA2
:104FA00002A8FCF7CBFC20460DF50B5D01B0BDE877
:104FB000F08341F264120190434601A938466A44E5
:104FC000FFF7A6FF04460028E5D141F2641102A8CC
:104FD000694406F0EDFA10B16FF07704DBE741F2B7
:104FE0008C318CA8694406F0E3FA0028F4D101243E
:104FF000D1E700BF10B5BDF808E068B1B2FA82FC95
:105000004FEA5C1C42B140F28524A64501D06046BF
:1050100010BDBDE810409DE76FF0AC0010BD00BFB3
:1050200098B1B2FA82F35B097AB1B2F81CC010B53C
:1050300014686CB140F2852EF44501D0184610BDBD
:1050400053682246BDE8104084E76FF0AC0070471B
:105050006FF0AC0010BD00BF10B3F8B50F46164698
:1050600000214FF4567204461D460AF023F87F23B0
:105070000C22002184F8F53204F54970A4F86C2064
:105080002822C4F8747284F86D11C4E99F650AF08F
:1050900011F86FF00103C4F82453C4F83833F8BD95
:1050A000704700BF10B3F8B50F46164600214FF405
:1050B000567204461D4609F0FDFF7F230C22002195
:1050C00084F8F53204F54970A4F86C202822C4F85D
:1050D000747284F86D11C4E99F6509F0EBFF6FF0FD
:1050E0000103C4F82453C4F83833F8BD704700BF37
:1050F00068B138B5044625462468E86808B10CF064
:10510000F9F928460CF0F6F9002CF4D138BD7047B7
:1051100010B510200CF0B6F9044618B11022002189
:1051200009F0C8FF204610BD68B138B504462546D1
:105130002468686808B10CF0DDF928460CF0DAF94B
:10514000002CF4D138BD704707F070B82DE9F04F4E
:1051500006468FB088461546002940F0968000F13B
:105160006D0B00F14C07D6F87842AC4280F0C1815B
:10517000D6F874020694002800F08280631C9D42D9
:105180007ED3015D0693062900F076814FF0010978
:10519000069305AA2B4606A9CDF80090FEF776FFE8
:1051A00000286DDBD6F878023A46D6F874420990AA
:1051B000DDE905351D44291A2044059107F036F82C
:1051C00000285DD107AB3021204609AACDE900595E
:1051D000FEF7FAFF002853DBB8F1010F099B079A8D
:1051E00004D1E118C6F81023C6F80C131A449A42E9
:1051F000079240F20A814FF000090127002309AA13
:1052000031210B93204608AB00950197FEF7DCFF98
:1052100008AB09AA30212046CDE90057FEF7D4FF9C
:1052200000282DDD0AAB09AA06212046CDE900574A
:10523000FEF7CAFF002825DB0999CB1CAB421FD81B
:105240002144032204A809F00FFF9DF81030552BCC
:1052500053D02A2B1ED19DF81130862B00F096805A
:1052600009A92046DDE9092313440BAA0133099358
:10527000012300932B46FEF709FF002880F2D3801C
:105280006FF08B000FB0BDE8F08F00F26D1B00F1E6
:10529000380768E7092BE3D19DF81130922BDFD155
:1052A000DDE90931E2180A4412F801ACBAF1010F44
:1052B00000F0C3800B440BAA09A9204601330097D4
:1052C00009932B46FEF7E2FE0028D9DBC9F5807072
:1052D0000B9B9842ACBF00270127BAF1120F00F0D8
:1052E000C180BAF1190F00F0C280BAF1050FC7D121
:1052F00003F1100C10228D496BE09DF81130042B46
:10530000AED1099B9DF812A0DA1C04339D4209928C
:10531000B6D30C930CA9A35C20460DAA0097039367
:105320002B46FEF7B3FE0028AADB0D9B0C9A002B40
:105330000B930992A4DBBAF1030F00F0BD80BAF120
:10534000040F00F0CA80BAF1060F00F0AF80BAF186
:10535000070F00F0C880BAF1080F00F0CD80BAF155
:105360000A0F00F0CF80BAF10B0F00F0D180BAF134
:10537000050F00F0D380BAF1120F3ED1C9F5807746
:10538000581D05226A49874237DB26E0DDE90923FB
:1053900009A92046134400970BAA013309932B4611
:1053A000FEF774FE0028FFF66BAF0B9BC9F580700B
:1053B0006049984203F10E02B4BF012700279042D2
:1053C000BCBF00210127B8F1010F24D00E2203EB4E
:1053D000020C604511DB81B17FB90BEB090009EBD1
:1053E000020709F041FE09990B9A0BEB07002144D3
:1053F00009F03AFE0B9B07EB0309099A1344079A3D
:1054000093420993FFF4F9AECB4400208BF80000DF
:10541000C6F8783236E7099AC6F818332244C6F837
:1054200014230E22D3E7C9F580700B9B002298420B
:105430001146ACBF00270127C9E70B440BAA09A9F5
:1054400020460133CDF800A009932B46FEF71EFE3F
:105450000028FFF615AFC9F580700B9B9842ACBFD2
:105460000027012703F1050C05223149B1E703F1BB
:10547000040C04223049ACE701230CAA00950193E7
:105480000DAB0C94FEF7A0FE0028FFF6F9AED6F89F
:105490007402DDE90C321344C6F8783200283FF478
:1054A000EFAE01339D42BFF471AEE9E6C9F58077F6
:1054B000D81C0322214966E7B8F1010F05D10399F1
:1054C000B36686F86C10A1187166191DC9F5807055
:1054D000814293DC04221A497FE7C9F58077181DC1
:1054E000042218494FE7C9F58077D81C03221649D2
:1054F00049E76FF08300C5E6C9F58077181D0422DF
:10550000124940E7C9F58077D81C032210493AE7D1
:10551000C9F58077181D04220E4934E7C9F5807754
:1055200003F10E000E220C492DE700BF4C3F01088D
:10553000603F0108343F0108443F0108983F0108DB
:10554000683F01089C3F0108943F01088C3F010817
:10555000883F0108803F0108703F01082DE9F043B2
:1055600085B00C9F70B381B390F8009001259846E8
:105570000446A9F117030295AB4220D80B46164604
:1055800002A903AA0095FEF781FD002823DB0399F9
:10559000A1F10C03142B1BD8B8F1000F01D088F82F
:1055A000009016B102980444346027B1002039609D
:1055B00005B0BDE8F083384605B0BDE8F0836FF074
:1055C0009800F5E76FF0AC00F2E76FF08300EFE7CB
:1055D0006FF09400ECE76FF08B00E9E77F2803D8C9
:1055E00001B1087001207047FEF7F0BC08B5034612
:1055F00061B130227F280A7005D901311846FEF7C3
:10560000E5FC013008BD02204B7008BD7F28F5D8AD
:10561000022008BD08B5034661B104227F280A7044
:1056200005D901311846FEF7D1FC013008BD022032
:105630004B7008BD7F28F5D8022008BD08B5034689
:1056400061B131227F280A7005D901311846FEF771
:10565000BDFC013008BD02204B7008BD7F28F5D885
:10566000022008BD1038012808B594BF6FF05F0014
:105670006FF07F006BB101437F2A197006D90133A7
:1056800019461046FEF7A2FC013008BD02205A70F0
:1056900008BD7F2AF4D8022008BD00BF8C4608B59B
:1056A00072B160F05F037F29137006D90132114691
:1056B0006046FEF78BFC013008BD0220517008BD2A
:1056C0007F29F4D8022008BD2DE9F043012A87B0D4
:1056D0004FF0000480460E461D46019400F2838080
:1056E00002271146404601AAFEF77CFF044658B344
:1056F000019806237F288DF8083028D84FF002093A
:105700008DF809002844302338448DF8103048447F
:105710007F2843D840F2032302258DF811009845D5
:1057200045D1002E68D04A4602A9304609F09CFCBB
:105730002146019A06EB090009F096FC019C002F16
:105740006CD107EB0900204407B0BDE8F083030EDD
:105750006DD1030C6ED1030A14BF4FF002094FF054
:10576000010909F1FF3C09F1FF330DF10A020DF1C6
:10577000090E4FEACC0C52FA83F369F07F025FFA0C
:1057800089F98DF8092020FA0CF2ACF1080C0EF81A
:10579000012F9E45F7D109F10209B3E70DF111017F
:1057A000FEF714FC40F20323451C9845B9D01EB304
:1057B00004A92A46304609EB050809F055FC4A467B
:1057C00002A9701909F050FC2146019A06EB080065
:1057D00009F04AFC019CCFB907EB0900284420449A
:1057E00007B0BDE8F083022A04D140F28523984235
:1057F0003FF476AF002774E740F20323019C9845FD
:105800009FD007EB090028442044E9E7A044052382
:1058100006F80830464400237370DDE704EB090006
:1058200005220023284432543044437089E74FF066
:10583000040996E74FF0030993E700BF2DE9F04F05
:105840001E4685B00023B0FA80F90F9D90460446AD
:105850004FEA5919DDF840A00F46CDE9013319B1DF
:10586000B9F1000F40F0DC80002F18BFB8F1000F35
:1058700000F0DF80B9F1000F40F0DB80002D00F078
:1058800087800AF12D033A6833449A42C0F0DB80E6
:1058900002AB324601A94046FFF71EF9002880F20C
:1058A000CB8001234FF0020B84F8079004F1050927
:1058B000A371082384F805B00193BAF1000F7DD0DD
:1058C000BAF17F0F40F299805FEA1A6340F0B78027
:1058D0005FEA1A4340F0B5805FEA1A2314BF022240
:1058E0000122531E501E5FFA82FC0DF10D02DB00F7
:1058F00052FA80F003AA2AFA03F1083B02F8011FCA
:105900009042F8D10CEB0A03022204F108010E9830
:105910000233FFF7D9FE019B062200F1030B03447B
:105920005046E118E25401930131FEF74FFB019B11
:10593000421C1344294693445246E018019309F04F
:1059400093FB019B04227F2E53440AEB0B0504EBCF
:1059500003010193E25443D802204E7035440344BE
:10596000324641460544E018019309F07DFB30239F
:105970007F2D23703BD8022665702A463544494660
:10598000A0190DF08DFB28463D6005B0BDE8F08FF5
:1059900006F128033A689A4255D302AB324601A970
:1059A0004046FFF799F8002846DA082304F1050974
:1059B000E5710193022363710123A3710023022285
:1059C00004F108010E98FFF77FFE019B04227F2E51
:1059D000034400F1030504EB03010193E254BBD936
:1059E00001313046FEF7F2FA019B0130B6E7611C47
:1059F0002846FEF7EBFA461CBFE75A460AF10203B7
:105A000004F108010E98FFF75FFE019B06215A463C
:105A1000034400F1030BE154E11881F801A088E789
:105A200028369DB10AF105036FF0C90033440B60BD
:105A3000ABE76FF0AC00A8E76FF08B00A5E704229E
:105A40004FE703224DE76FF083009EE76FF0C90038
:105A50000E609AE72DE9F0419AB01D4604231446E2
:105A600007460DF11E008DF81D2002348DF81C3004
:105A700009F0FAFA0023284602A91A46FFF724FE85
:105A800000EB040830230546B8F17F0F8DF8003095
:105A900017D802268DF8018032466946384609F04B
:105AA000E3FA2A46354402A9B81909F0DDFA781953
:105AB000224607A909F0D8FA08EB06001AB0BDE89B
:105AC000F0810DF101014046FEF780FA461CE3E744
:105AD00008B506F0BBFA06F0BFFA20EAE07008BD90
